:020000040800F2
:100000000000022069430008B9430008B943000812
:10001000B9430008B9430008B943000800000000D4
:100020000000000000000000000000006542000821
:10003000B943000800000000694200086D42000852
:10004000B9430008B9430008B9430008B9430008A0
:10005000B9430008B9430008B9430008B943000890
:10006000B9430008B9430008B9430008B943000880
:10007000B9430008B9430008B9430008B943000870
:10008000B9430008B9430008B9430008B943000860
:10009000B9430008B9430008B9430008B943000850
:1000A000B9430008B9430008B9430008B943000840
:1000B000B9430008B9430008B9430008B943000830
:1000C000B9430008B9430008B9430008B943000820
:1000D000B9430008B9430008B9430008B943000810
:1000E000B9430008B943000800000000B943000804
:1000F000B9430008B9430008B9430008B9430008F0
:10010000B9430008B9430008B9430008B9430008DF
:10011000B9430008B9430008B9430008B9430008CF
:10012000B9430008B9430008B9430008B9430008BF
:10013000B9430008B9430008B9430008B9430008AF
:1001400000000000000000000000000000000000AF
:10015000B9430008B9430008B9430008B94300088F
:10016000B9430008B9430008B9430008B94300087F
:10017000B9430008B9430008B94300080000000073
:10018000B9430008B9430008B9430008B94300085F
:10019000B9430008B9430008B9430008B94300084F
:1001A000B9430008B9430008B9430008B94300083F
:1001B000B9430008B9430008B9430008B94300082F
:1001C000B9430008B9430008B9430008B94300081F
:1001D000B9430008B9430008B9430008B94300080F
:1001E000B9430008B9430008B9430008B9430008FF
:1001F000B9430008B9430008B9430008B9430008EF
:10020000B9430008B9430008B9430008B9430008DE
:10021000B9430008B9430008B9430008B9430008CE
:10022000B9430008B9430008B943000800000000C2
:10023000B9430008B943000800000000B9430008B2
:10024000B9430008B9430008B9430008B94300089E
:10025000B9430008B9430008B9430008B94300088E
:10026000B9430008B9430008B9430008B94300087E
:10027000B9430008B9430008B94300080000000072
:10028000B943000800000000B94300080000000066
:0802900000000000B943000862
:1002A00010B5054C237833B9044B13B10448AFF3B0
:1002B00000800123237010BD80500020000000004A
:1002C000D453000808B5034B1BB103490348AFF3EF
:1002D000008008BD0000000084500020D4530008B6
:1002E00001F0FF01102A2BDB10F0070F08D010F8E7
:1002F000013B013A8B422DD010F0070F42B3F6D1EB
:10030000F0B441EA012141EA014122F007047FF003
:1003100000070023F0E80256083C85EA010586EA5A
:10032000010685FA47F5A3FA87F586FA47F6A5FA96
:1003300087F68EB9EED1F0BC01F0FF0102F00702A2
:1003400032B110F8013B013A83EA010313B1F8D14D
:100350000020704701387047002D06BF354603382E
:10036000073815F0010F07D1013015F4807F02BF67
:10037000013015F4C03F0130F0BC0138704700BFB8
:1003800053B94AB9002908BF00281CBF4FF0FF31FC
:100390004FF0FF3000F06EB9ADF1080C6DE904CEFE
:1003A00000F006F8DDF804E0DDE9022304B0704750
:1003B0002DE9F047089D04468C46002B40F08380D1
:1003C0008A42174647D9B2FA82F242B1C2F12000FE
:1003D00024FA00F09140974040EA010C94404FEA23
:1003E0001748230CBCFBF8F61FFA87FE08FB16C162
:1003F00043EA014306FB0EF1994209D9FB1806F1C5
:10040000FF3080F01981994240F21681023E3B4450
:100410005B1AA4B2B3FBF8F008FB103344EA0344C0
:1004200000FB0EFEA64509D93C1900F1FF3380F010
:100430000581A64540F2028102383C4440EA06406C
:10044000A4EB0E0400261DB1D4400023C5E90043EF
:100450003146BDE8F08702B9FFDEB2FA82F2002A27
:1004600050D1CB1B4FEA174E1FFA87F80126B3FB7A
:10047000FEFC210C0EFB1C3341EA034108FB0CF38C
:100480008B4207D979180CF1FF3002D28B4200F26F
:10049000E9808446C91AA3B2B1FBFEF00EFB10112D
:1004A00043EA014408FB00F8A04507D93C1900F1D4
:1004B000FF3302D2A04500F2D9801846A4EB08040D
:1004C00040EA0C40BFE78B4209D9002D00F0B18013
:1004D0000026C5E9000130463146BDE8F087B3FA91
:1004E00083F6002E4AD18B4202D3824200F2B880BA
:1004F000841A61EB030101208C46002DA8D0C5E9C8
:10050000004CA5E7C2F1200320FA03F6974001FA58
:1005100002F04FEA174ED9403043030CB1FBFEF610
:100520001FFA87F80EFB161143EA014306FB08F198
:10053000994204FA02F409D9FB1806F1FF3C80F055
:100540008D80994240F28A80023E3B445B1A81B220
:10055000B3FBFEF00EFB103341EA034100FB08F34E
:100560008B4207D9791800F1FF3C73D28B4271D9C5
:1005700002383944CB1A40EA064678E7C6F1200C27
:1005800003FA06F422FA0CF31C4320FA0CF701FAE2
:1005900006F34FEA144E21FA0CF11F433B0CB1FB5A
:1005A000FEF91FFA84F80EFB191143EA014109FB19
:1005B00008FA8A4502FA06F200FA06F308D9611829
:1005C00009F1FF3048D28A4546D9A9F102092144F0
:1005D000A1EB0A01BFB2B1FBFEF00EFB101147EA1E
:1005E000014700FB08F8B84507D9E71900F1FF31CA
:1005F0002ED2B8452CD90238274440EA0940A7EB4F
:100600000807A0FB02894F45C64649461AD317D0B2
:100610005DB1B3EB0E0267EB010707FA0CFCF24089
:100620004CEA0202F740C5E9002700263146BDE842
:10063000F0872E4628460BE70646E9E61846FDE613
:100640004345E5D2B8EB020E69EB04010138DFE760
:100650000846D2E760468DE78146B9E7664675E70A
:1006600030464AE7ACF1020C394413E702383C4407
:1006700024E700BF704700BF2DE9F04F2DED068B3A
:10068000A1B09346884618939DF8C830BDF8C04085
:100690000E939DF8CC302243BDF8C41015939DF8FD
:1006A000D43007901C93BDF8D8309DF8D0000A9341
:1006B000BDF8E4300F9110939DF8E830139008EEE8
:1006C000103A9DF8EC3017939DF8F03019939DF98E
:1006D000F830169312F0030340F0818309EE104ABC
:1006E000002800F0768301FB01F21C461A9311FBEF
:1006F00001F341420BFB02F213FB0BF34FEA4B09F0
:1007000089B2CDF82CB09BB2C34614913F9908EE44
:10071000903A234601EB82028A461192109A002AEF
:1007200056D00A9A0F99BDF9500003FB02130E9A96
:1007300012900021139852420D911B1A099393B203
:100740000C930B46129A0998824230DA0A991546A0
:100750000F9817460E9A03FB0103BDF930809E1ACD
:10076000B0451EDA07FB0BF3444608934346002DC1
:100770004A464FF0000150460BDB9B45CCBF4FF083
:10078000000C4FF0010C5CEAD47C02D1BB4500F3B5
:10079000168203F04BFE0134CA4424B2B44223460D
:1007A000E5DB0135099B2DB29D422F46D8DB119B1D
:1007B000534500F03F820D9A0C9B0A9901320B447D
:1007C00012B210999BB20D928A420C931346B9DB78
:1007D0001A9A149B0A9901320B4412B213999BB2D4
:1007E0001A928A421493134698DBD846DDF82CB04F
:1007F0001B9210981C9B1B9AC31A9A421D9380F25D
:100800003E810F9C4FEA4B09159A0BFB04F11A9B92
:10081000821A0A980AEE101A13FB00F30846149283
:1008200014FB04F2400001FB04F112FB0BF20C90EC
:10083000139892B21B1A3F9809EE902A00EB81019F
:100840009BB211911C930E9B002B00F051821B9ABE
:1008500000250F990A9B0D9502FB0313BDF970103B
:100860000E9A1591139952425B1A099393B21293FF
:10087000159B09998B423BDA0A9A1E460F991F462F
:100880000E9B05FB0215BDF94820ED1A0B920B9B40
:10089000AB4227DAF0EE488A07FB08F71C460896B9
:1008A00007E0013403F0C2FDCA4424B2AC4223463F
:1008B00017DA002C4A464FF000015046F1DB98450C
:1008C000EFDD0134F818079E18EE903A24B2514635
:1008D0005A460BFB006000F061FFAC42CA4423465D
:1008E000E7DB089E0136099B36B29E423746CEDBD7
:1008F000119B534500F0CC81129B0A990D9A0B4431
:1009000001329BB212B212930E9B15460D929A427F
:10091000AEDB149B9D423DDA0A9B1B9A0F99BDF9F1
:10092000707002FB0316139B0B971AEE107AF61ADF
:10093000CDF848900B9BB3421EDA0A9A1C46184623
:10094000DDF84C9005FB02F518EE103A0995099A6E
:1009500001340C9D514600FB082024B2AA44079D97
:10096000A0EB09003A4608930BFB005000F016FF7D
:10097000B4422046089BEADB119B534500F071818D
:100980000D9B149A01331BB293421D460D93D1DB8C
:10099000DDF84890109BAB4263DD0A9A1B990D9BD2
:1009A0000F9813FB02F301FB0202BDF970101591C1
:1009B0000E995B1A13999BB2521A12930992099BD2
:1009C0001946159B99423BDD0A9A1E460F991F4610
:1009D0000E9B05FB0215BDF94820ED1A0B920B9BEF
:1009E0009D4227DDF0EE488A07FB08F71C46089673
:1009F00007E0013403F01AFDCA4424B2AC42234696
:100A000017DA002C4A464FF000015046F1DB9845BA
:100A1000EFDD0134F818079E18EE903A24B25146E3
:100A20005A460BFB006000F0B9FEAC42CA442346B4
:100A3000E7DB089E0136099B36B29E423746CEDB85
:100A4000119B534500F0C880129B0A990D9A0B44E4
:100A500001329BB212B21293109B15460D929A422C
:100A6000ADDB1A9A1C9B0A9901320B4412B29BB25D
:100A70001A92CDE91B231D9B9A42FFF6E4AE109B10
:100A80001B9CA34240F384800E9A4FEA4B090F9BB4
:100A900050420A9D13FB03F203FB03F180B21A9B41
:100AA00012FB0BF20BFB01F113FB05F315901398EE
:100AB00092B2CDF82CB0C3461B1A3F9808EE902A8C
:100AC0009BB200EB81011493234611910A9A0F996E
:100AD00003FB0213BDF950100022129115990D92DB
:100AE0000C9113995B1A09931346129A0998824242
:100AF0002FDA0A9915460F9817460E9A03FB010341
:100B0000BDF930809E1A46451DDD07FB0BF34446B8
:100B100008934346002D4A464FF0000150460ADB39
:100B20009B45CCBF4FF0000C4FF0010C5CEAD47C2D
:100B300001D1BB4536DC03F079FC0134CA4424B250
:100B4000B4422346E6DB0135099B2DB29D422F4678
:100B5000D9DB119B534556D00D9A0C9B0A99013253
:100B60000B4412B210999BB20D928A420C93134619
:100B7000BBDB1A9A149B0A9901320B4412B21099EA
:100B80009BB21A928A42149313469FDBDDF82CB075
:100B90003F9B534500F0A680169B002B40F3AB8093
:100BA0000027ACE0089A5146079802EB030E0B9A17
:100BB00018EE103A02FB0E0000F0F0FDBDE7089AB7
:100BC0005146079802EB030E0B9A18EE103A02FBFF
:100BD0000E0000F0E3FDDEE5389C1999169B3D9A66
:100BE00017980194379C03913F99059319EE903A19
:100BF000049219EE102A02908A461898009400F088
:100C00001DFB389020E7389C1999169B3D9A179840
:100C10000194379C03913F99059318EE903A049202
:100C200019EE102A02908A461898009400F006FBEC
:100C3000389091E7389C1999169B3D9A1798019422
:100C4000379C03913F99059318EE903A049219EE60
:100C5000102A02908A461898009400F0EFFA389013
:100C6000A9E5389C1999169B3D9A17980194379CD1
:100C700003913F99059319EE903A049219EE102AC8
:100C800002908A461898009400F0D8FA389077E6D7
:100C9000389C1999169B3D9A17980194379C03919B
:100CA0003F99059319EE903A049219EE102A02909A
:100CB0008A461898009400F0C1FA38901CE628463D
:100CC0003D9ABB40154683FB0512169B42FA03F37F
:100CD000199A1344389A83F3080302F8013B9145AB
:100CE00038923DD1002021B0BDEC068BBDE8F08FDD
:100CF0001D460D930DE65F4200237FB21693BDF9AA
:100D00005C30ADF87C30ADF87E3019EE103A1F9CA7
:100D1000002BE7D00F9B379A03FB0BFE389913FB90
:100D200003F8A2F1040C03FB0EFE19EE102A18FBC7
:100D30000BF818980A44CEF38F0E08F0030891467A
:100D40000EF1FF3308F1FF329BB292B2013302F190
:100D5000010A3F9A4FEA830B02EBC303CDE9073E3A
:100D6000089A5CF8043F8AB33F9A00EB0B0502F146
:100D7000080150F8042B4FEA32263FFA86F63FFA74
:100D800082F2D2FA04FED6FA04F251F8086C2EFB75
:100D9000063651F8043C22FB0363854201F1080149
:100DA000E7D1079EB8F1000F89D005EB0A00DDF806
:100DB0005CE015F8012B36F8021BA2EB0E02A842EC
:100DC000C9B2D2B202FB0133F3D179E705463F9EA7
:100DD000E8E7139BDDF8FCA01B931A9309E56FF07D
:100DE000020080E72DE9F04FADB09346BDF8DC205E
:100DF0009DF800411B929DF8E02025B29DF804610A
:100E00001D929DF8E8200A9434B22692BDF8F02095
:100E1000129616929DF91061BDF8FC20002EADF8D7
:100E2000AC5019929DF80821ADF8AE50ADF8A8402D
:100E30000893ADF8AA40BDF8D8300C9613902291D3
:100E40000D92DDE92A9840F3EE8100220B929B453A
:100E500040F0EF81199B002B00F0D4811B994FEAE1
:100E60009B04269A4FEA4B070B461A945642621E81
:100E700003FB01F3A40011FB01F192B22094C3F330
:100E80004F0001F0010400231090013811941D4619
:100E90003D9C80B2049704EB0214013220340F947D
:100EA0003D9C04EB0214920021941F9200FB0772F8
:100EB0001E928AB214920BF003022892B2B22592CB
:100EC0001D9ACDE923985242D8462992169A9BB290
:100ED0001B99C246279302FB0515269B0022EB1A9D
:100EE00017920E931346BDF994201C92BDF8A020D2
:100EF0001892BDF8A42015921C9F0E98874232DAF2
:100F000016993D461B981D9A01FB0303BDF9541029
:100F1000DDF814919E1A8B46DDF88880B3451CDA03
:100F200008FB07F35C46DC460093002D52464FF069
:100F30000001484609DBE045CCBF0023012353EA0A
:100F4000D47302D1B84500F3618103F06FFA013424
:100F5000D14424B2B442A446E7DB01350E9B2DB246
:100F60009D422F46DADB1A9B002B00F058813D9BF7
:100F7000CDF80CA0103305933E9B043309931E9BC0
:100F8000DDE923B8079300230693059B069953F8E0
:100F9000102C53F808AC0092459A53F8049C55184D
:100FA00053F80C2C109B0192089A5618002B5AD01B
:100FB0000293D5F800E02A460398D6F800C01158ED
:100FC00037581FFA8EF09C4A9B4B40EA0140049C24
:100FD0000A403B401FFA8CF12544264442EA1E4257
:100FE00043EA1C4341EA07413FFA81F73FFA80FC9C
:100FF000D7FA0BF7DCFA08FC009C27FB0C444FEAFD
:10100000312100943FFA81F14FEA30203FFA80F01D
:10101000D1FA0BF1D0FA08F0019C21FB00410191BB
:101020003FFA83F13FFA82F0D1FA0BF1D0FA08F0DF
:1010300021FB00AA4FEA33233FFA83F34FEA32221F
:101040003FFA82F2D3FA0BF3D2FA08F223FB0299A9
:10105000029B5C1EA3B20293002BAAD1459A079B68
:10106000D518089AD618119B2BB333682A68129F9B
:10107000DCB20A99D5B2C2F30720E41B6D1AC3F3A0
:101080000726401A0099C3F3074EF61B05FB04140C
:101090000A9DC7EB1363AEEB07010094C2F307444C
:1010A000C5EB1262641B019D02FB039900FB065015
:1010B00004FB01AA0190009A0B9C439BA240184696
:1010C00082FB001301990546A14081FB05020AFA43
:1010D00004FA8AFB050109FA04F989FB05400C9C16
:1010E0000D9E2341224121412041099C3344324439
:1010F000059F83F3080382F3080204F8043C2346A7
:1011000004F8032C1037069A043331443044043277
:1011100009930F9B0692079ABB4281F3080102F1E3
:101120000402059780F3080004F8021C079204F8F3
:10113000010C7FF42AAF3E9B1F9ADDF80CA01344EC
:10114000DDE9207E3E93189B002B3FD03B44DDF829
:10115000F8C0DDF828801FFA83F9CB46DDF8489007
:10116000459A7B1C5EF8044BD519089AD6199FB294
:10117000149B9BB1194600202A5C0139335C504412
:10118000A2EB080289B283F30803A3EB0903D2B2EE
:1011900003F0FF0303FB02440029EDD10B9B9C40AD
:1011A000439B194684FB01230C9ABB4543FA02F387
:1011B0000D9A134483F308030CF8013BD0D1189B1C
:1011C0003E9A013B9BB201331A443E92179ADDE9E5
:1011D000153101320B44199912B29BB28A4217920F
:1011E00015931346FFF688AE259AD0461699279B8D
:1011F0000A44013392B21BB22592199A1D469342BA
:10120000FFF664AE00202DB0BDE8F08F009B03EB2D
:101210000C01139B0AFB013103F0FAF897E61A9FC1
:10122000DDF8F4E08FE77242002152B20C910B928C
:101230000DE66FF00200E6E70000FFFF2DE9F04F3A
:1012400095B083469DF98C40039301EB43031F98AF
:10125000002C07939DF8843010449DF880700B910A
:10126000109209940C9340F3E48000230A933BB25C
:10127000ADF84C30ADF84E30039B1399002B00F0C5
:10128000DE805A1E0B9B0025079C5208AC46069533
:101290000132960003EB8202964653F8042B21FBA1
:1012A000025554F8042B21FB02CC7345F5D1079B62
:1012B000724608951E44CDF818C0039BDB0709D57C
:1012C00013880899328813FB07130893069B12FBB7
:1012D00007330693109B002B00F0A680591E831C39
:1012E000039A05931F9B9208119102330D92049368
:1012F000531E21F001021E999BB202440291013358
:1013000004329B000E920F93029B039A1F68596848
:101310000BEB020A089B069AA7EB030EA1EB030C4A
:101320000D9BBF1A891A002B00F081800B9B03F1E3
:101330000809079B03F108080F9B0BEB03020192BE
:101340005BF8042B4FEA32253FFA85F53FFA82F22B
:101350005AF8043B4FEA33203FFA80F03FFA83F318
:1013600059F8086C22FB06EE58F8084C22FB04776B
:1013700023FB06CC23FB041359F8042C25FB02EEB7
:1013800058F8041C25FB017720FB02CC20FB01311F
:10139000019B09F1080908F108085B45D0D1039BBE
:1013A0009B440A9D229B0EFA05FE18468EFB0032D6
:1013B000AF40044687FB04300CFA05FC26468CFB44
:1013C0000643A94081FB06540999049D0A410B413B
:1013D00008410C410C990A440B4482F3080205F8B9
:1013E000022C2A4683F30803023205F8013C059BD0
:1013F000084404920C44029A023380F30800083235
:1014000003F8040C84F3080402920E9A03F8034CC8
:10141000934205937FF478AF119B23F00100109B5A
:10142000023018441F9B184415B0BDE8F08FD34616
:10143000B7E7634200225BB209920A9317E7039B66
:10144000079E0B9A0693089337E700BF2DE9F04FEC
:1014500091B016460F469DF868400B9325B2A14601
:101460000D945C08ADF83C501346ADF83E509DF825
:10147000705001920495BDF87850219A9DF86C1037
:10148000DDF83C80059500F03FF9002C00F0A080CD
:10149000B30806F003021F9D013C0793013B06922F
:1014A000013A9BB2083592B21F990133A0B20132C2
:1014B000103100951FFA89FB0A929A00209D01EBDA
:1014C000C0010392219A02350C9002EBC3030295EE
:1014D00008910993009A019952F8083C07EB010A18
:1014E00052F8041C079A002A00F0C580219AD146C0
:1014F00002F1080C039A07EB020E57F8042B4FEA8F
:1015000032263FFA86F63FFA82F259F8044B4FEA48
:1015100034253FFA85F53FFA84F4D2FA08F2D4FA7A
:1015200008F45CF8080C20FB023320FB0410D6FA08
:1015300008F6D5FA08F55CF8041C21FB063321FBFC
:10154000050177450CF1080CD7D1039A099D924407
:10155000069A002A00F08D800A9A0EEB02071EF808
:10156000010B1AF8012B35F9024BA0EB0B00A2EB93
:101570000B02774514FB003314FB0211EFD11D9AC7
:10158000144683FB040281FB0403059901980A4178
:101590000B4107440498009902440344029808311F
:1015A00083F3080300F8013C831C82F308020293D2
:1015B000089B0091994200F8022C8BD10C9C1F9B38
:1015C000013403EBC4031F93209B03EB44032093DC
:1015D0000B9BDB0749D5019A1F9B92081B684DD0D6
:1015E000561E219AB6B202F10804013607EB8605B1
:1015F00057F8042B4FEA32213FFA81F13FFA82F289
:10160000D2FA08F2D1FA08F154F8080C20FB0233A0
:1016100054F8042C22FB0133BD4204F10804E7D145
:10162000219A02EBC6022192019A12F003020FD016
:10163000013ABDF83400219C92B201322A4415F8D7
:10164000011B34F8026B091AAA4216FB0133F6D1CA
:101650001D9A104683FB0012059B42FA03F3049A7D
:101660001344209A83F308031370002011B0BDE8DF
:10167000F08F774683E7BE46219D69E73D46D3E775
:101680002DE9F0470CB282B05FEA9308ADF8044050
:10169000ADF80640DDF804C031D002F1080600EBD9
:1016A0008807DFF860E050F8044B4FEA34253FFA32
:1016B00085F53FFA84F419B1D5FA0CF5D4FA0CF497
:1016C0001FFA84FA05EA0E09B8424AEA054549EAD2
:1016D000144446E9025406F10806E4D102EBC802BC
:1016E00013F0030308D089B23B4417F8010B401AEA
:1016F0009F4222F8020BF8D102B0BDE8F0870746FE
:10170000EEE700BF0000FFFFF0B50CB283B09F080A
:10171000ADF80440ADF8064019BBE7B302F1080587
:1017200000EB870650F8044B4FEA342C3FFA8CFC50
:101730003FFA84F4B04245E9024C05F10805F1D1C5
:1017400002EBC70213F0030309D089B202EB430393
:1017500016F8010B401A22F8020B9A42F8D103B096
:10176000F0BDC7B1DDF804E002F1080C00EB87061C
:1017700050F8044B4FEA34253FFA85F53FFA84F4DC
:10178000D5FA0EF5D4FA0EF4B0424CE902450CF14C
:10179000080CEDD1D4E70646D4E700BFF0B51CB283
:1017A00083B09708ADF80440ADF806401BBBE7B323
:1017B00001F1080500EB870650F8044B4FEA342C82
:1017C0003FFA8CFC3FFA84F4B04245E9024C05F143
:1017D0000805F1D101EBC70112F0030209D09BB259
:1017E00001EB420216F8010BC01A21F8020B9142DC
:1017F000F8D103B0F0BDC7B1DDF804E001F1080C89
:1018000000EB870650F8044B4FEA34253FFA85F584
:101810003FFA84F4D5FA0EF5D4FA0EF4B0424CE94E
:1018200002450CF1080CEDD1D4E70646D4E700BF21
:101830005FEA920C2DE9F0413ED00CF1FF3C00F143
:1018400008041E4F1FFA8CFC0CF1010C01EB8C06F6
:1018500051F8045B4FEA35233FFA83F33FFA85FEE4
:101860001FFA8EF854F8085C48EA034898FA15F510
:101870003B4044F8085C54F8045C43EA1E4393FA86
:1018800015F3B14244F8043C04F10804E0D100EB44
:10189000CC0012F003020DD0013A93B2013300EBF9
:1018A000430330F8021B16F8012B98420A4420F833
:1018B000022CF6D1BDE8F0810E46EAE70000FFFFFA
:1018C0002DE9F04F2DED028B8DB015460693BDF836
:1018D0006030DDF86C800293BDF8643001900793AE
:1018E000BDF8683004910593002963D0002308EB0C
:1018F000420B9A460993059B002B53D0049A0AFB8E
:1019000002F34FF0000AD1180393019B524605FBE6
:10191000013308930799039B029E9F1801FB02F273
:10192000019C911B05FB074700F1B5809818801BAF
:1019300005FB0040069B049C1944A14280F2A8804C
:10194000039901EB0209029AA9EB02099944019B50
:1019500005FB093944192B4642460021FFF790FE4A
:10196000A14540F29A80022621462C4440462A4650
:10197000FFF75EFF731CA14530469EB2F4D84DB10F
:10198000013F414631F9023B93FBF0F38B4507F8E9
:10199000013FF7D10AF1010A059B0FFA8AFA9A452D
:1019A0005246B7DB099A013213B2049A93429A461F
:1019B0000993A0DB059A002A65D0049C02FB05F17F
:1019C000A8F102000026234608EE101A12FB05F9C2
:1019D00089B2019A03FB04F304FB05FA1FFA89F9A3
:1019E00005FB032300EB41020A900B939346334619
:1019F000099108950799059A02FB03F201FB03F38D
:101A0000089901FB02F20392029A9B1A49D4049AA4
:101A100002FB03F0019A01FB0020069A1344049A8A
:101A200093423CDA02FB03F30199089A02FB031785
:101A300000EB0A0418EE103A42460021FFF720FEA0
:101A4000A74230D902252146544440464A46FFF772
:101A5000EFFE6B1CA74228469DB2F4D8099B63B1E8
:101A6000039B0A9A591E1C9B194432F9023F93FBAF
:101A7000F0F35A4501F8013FF7D10136059A36B225
:101A800096423346B6DB0DB0BDEC028BBDE8F08F5D
:101A9000DDF820905EE738464CE701206FE70B9FAA
:101AA000C6E70198B9E70120D8E700BF38B50D4D6A
:101AB0004FF47A730C4A044629781268B3FBF1F3A9
:101AC000B2FBF3F000F094F808B90F2C01D9012013
:101AD00038BD002221464FF0FF3000F04FF80020C3
:101AE0006C6038BD0000002014500020032010B5A9
:101AF00000F030F80020FFF7D9FF10B10124204694
:101B000010BD044602F048FB204610BD034A044BBA
:101B100011681B780B441360704700BF9C50002075
:101B200000000020014B1868704700BF9C50002047
:101B300038B50446FFF7F6FF0546631C02D0044B98
:101B40001B781C44FFF7EEFF431BA342FAD338BDBA
:101B50000000002007490002074BCA6800F4E0605B
:101B600010B44FF6FF0422405DF8044B10430343CA
:101B7000CB60704700ED00E00000FA05194BDB6810
:101B8000C3F3022330B4C3F107051C1D042D28BF85
:101B90000425062C19D9033B4FF0FF349C4022EA60
:101BA00004024FF0FF34002804FA05F421EA04018E
:101BB00001FA03F141EA02010ADB09010A4BC9B249
:101BC000034483F8001330BC704700221346E8E753
:101BD00000F00F000901054BC9B20344197630BC6F
:101BE000704700BF00ED00E000E100E0FCEC00E029
:101BF0000138B0F1807F0DD2074B0022072130B4AD
:101C0000F025064C5860104684F823509A601960FD
:101C100030BC70470120704710E000E000ED00E0AC
:101C20002DE9F04F002383B0DFF83C820D68DFF828
:101C30003CE203E00133102B00F0C08001229A4007
:101C400032EA050402EA050CF4D14C6824F01007CE
:101C5000022F40F0B680DF0803F0070A4FF00F0BA9
:101C60000E6900EB87074FEA8A0AD7F820900BFA33
:101C70000AFB06FA0AF64FEA430A29EA0B094FF073
:101C8000030B46EA09090BFA0AF604EA0B0BC7F83C
:101C900020906FEA060907680BFA0AFB27EA060696
:101CA0004BEA060606608768C4F3001607EA090BCC
:101CB000CF689E4007FA0AF747EA0B078760476834
:101CC00027EA020216434660C668E7008A6806EA09
:101CD000090902FA0AF242EA0902C260AAD5D8F852
:101CE000F47023F0030903F003020F2647F0020704
:101CF00009F1B0499200C8F8F47009F58069D8F884
:101D0000F47006FA02FA07F0020701974D4F019EA0
:101D1000B842D9F8086026EA0A0620D007F580679D
:101D2000B84266D0484FB84268D0484FB8426AD0EF
:101D3000474FB8426CD0474FB84273D0464FB84275
:101D400075D0464FB84268D0454FB84274D0454F21
:101D5000B8420CBF09270A2707FA02F21643C9F84E
:101D600008606FEA0C07DEF80020E60303F10103C8
:101D700054BF3A404CEA0202CEF80020A203DEF83B
:101D800004604FF0B04254BF3E404CEA0606CEF825
:101D900004601668E2024FF0B04254BF3E404CEA85
:101DA0000606A4024FF0B0441660526854BF3A4091
:101DB0004CEA0202102B62607FF440AF03B0BDE832
:101DC000F08F4FEA430A4FF00309D0F800B0013F0B
:101DD00004EA090609FA0AF9012F2BEA090B06FAA7
:101DE0000AF66FEA090946EA0B0606603FF66CAF91
:101DF00059E7012707FA02F21643B0E7022707FA6C
:101E000002F21643ABE7032707FA02F21643A6E7EE
:101E1000042707FA02F21643A1E7072707FA02F29E
:101E200016439CE7052707FA02F2164397E70627B1
:101E300007FA02F2164392E7082707FA02F216435E
:101E40008DE700BF0000025800080258000C02583D
:101E5000001002580014025800180258001C0258C2
:101E60000020025800240258004402588000005804
:101E7000F8B503680446D90730D5AE490A6902F0BF
:101E80003802102A00F0ED800A6902F03802182AA0
:101E900000F0E1806368B3F5803F00F03A81002BE9
:101EA00000F07981B3F5A02FA24B1A6800F0C5812C
:101EB00022F480321A601A6822F480221A60FFF736
:101EC00031FE9C4E054605E0FFF72CFE401B6428C2
:101ED00000F25F8133689B03F6D52368980731D5FC
:101EE000944B1A6912F0380F00F0CA801A6902F098
:101EF0003802182A00F0C080E268002A00F08981C8
:101F00008C490B680E4623F0190313430B60FFF74F
:101F100009FE054605E0FFF705FE401B022800F21A
:101F2000388133685F07F6D571684FF47C3393FAD4
:101F3000A3F3B3FA83F2236921F47C3193400B437A
:101F400073602368D90655D41D0717D56369002B24
:101F500000F0B180774B5A6F1E4642F001025A677B
:101F6000FFF7E0FD054605E0FFF7DCFD401B02281A
:101F700000F20F81736F9807F6D523689A0617D57C
:101F8000A369002B00F01E816A4B1A681E4642F4BA
:101F900080521A60FFF7C6FD054605E0FFF7C2FD57
:101FA000401B022800F2F58033689F04F6D52368B1
:101FB000590700F1B480636AD3B15E4A116901F038
:101FC0003801182956D0022B1368154623F0807368
:101FD000136000F03A81FFF7A5FD044605E0FFF726
:101FE000A1FD001B022800F2D4802B689B01F6D4CF
:101FF0000020F8BD4F490A6902F03802082A72D061
:102000000A6902F03802182A68D0E369002B00F050
:10201000EC80484B1A681E4642F080021A60FFF7B7
:1020200081FD054605E0FFF77DFD401B022800F21B
:10203000B0803368DB05F6D571684FF0F84393FA4A
:10204000A3F3B3FA83F2236A21F0F84193400B43E0
:102050007360236878E78A6A02F00302022A7FF439
:1020600019AF344A126892037FF538AF6268002ACC
:102070007FF434AF0120F8BD9B6A99077FF43CAF31
:102080002C4BE1681B685A0701D50029F2D0294A78
:102090001368164623F019030B431360FFF742FD44
:1020A000054604E0FFF73EFD401B022871D8336867
:1020B0005B07F7D538E71F4B5A6F1E4622F0010227
:1020C0005A67FFF72FFD054604E0FFF72BFD401B85
:1020D00002285ED8736F9907F7D44EE78A6A02F038
:1020E0000302012A91D1134A1268D20502D5E2698E
:1020F000802ABFD10F4D4FF0F842686892FAA2F2E1
:10210000B2FA82F1226A20F0F8408A4002436A6003
:102110001AE7084A136843F480331360CFE6064B8E
:102120001A681E4642F480721A60FFF7FBFC0546EF
:1021300009E000BF0044025800480258FFF7F2FCD3
:10214000401B642825D83368DA05F7D5A368012B2E
:1021500000F0FC80002B00F0DF80052B824B1A6F13
:1021600000F0FA8022F001021A671A6F22F00402CE
:102170001A67FFF7D7FC7C4E41F28837054604E02A
:10218000FFF7D0FC401BB84203D8336F9B07F7D54D
:1021900011E70320F8BD744B1A681E4622F4803202
:1021A0001A601A6822F480221A60FFF7BBFC054609
:1021B00004E0FFF7B7FC401B6428EAD833689F03AC
:1021C000F7D48AE6684B1A681E4622F480521A60D9
:1021D000FFF7A8FC054604E0FFF7A4FC401B02281B
:1021E000D7D833689804F7D4E1E65F4B1A681E46E7
:1021F00022F080021A60FFF795FC054604E0FFF725
:1022000091FC401B0228C4D83368DF05F7D423684B
:102210009AE6554B1A681E4622F001021A60FFF733
:1022200081FC054604E0FFF77DFC401B0228B0D886
:1022300033685807F7D4236884E642F480221A6092
:102240001A6842F480321A6039E6FFF76BFC0646E2
:1022500004E0FFF767FC801B02289AD82B689901DD
:10226000F7D4AA6A4FF6F871404BA06A1340E26AAD
:10227000034343EA0213AB62266BD4E90D32013EFD
:10228000501E013BE26BC6F308065B020004013AF4
:102290009BB200F4FE001206034302F0FE423343F9
:1022A00013432B63686B91FAA1F33149B3FA83F2BC
:1022B000A36C01402C4E93400B436B63EB6A226C82
:1022C00023F00C031343EB62EB6A626C23F002030E
:1022D0001343EB62EB6A43F48033EB62EB6A43F443
:1022E0000033EB62EB6A43F48023EB62EB6A43F06A
:1022F0000103EB622B6843F080732B60FFF712FC45
:10230000044605E0FFF70EFC001B02283FF641AF34
:1023100033689A01F6D56BE6134B41F288371A6F92
:102320001E4622F001021A671A6F22F004021A6791
:10233000FFF7F8FB054605E0FFF7F4FB401BB8424A
:102340003FF627AF336F9807F6D434E6064A136F8B
:1023500043F0010313670CE742F004021A671A6F97
:1023600042F001021A6704E7004402580CFCFFFF28
:102370000700FFFF4E4A136903F03803102B04D007
:10238000182B0DD01BB14B4870474B487047136852
:10239000990647D513684948C3F3C103D84070472D
:1023A000F0B4956A976AD46A05F00305566BC7F3D3
:1023B000051704F00104012DC6F3CC0604FB06F456
:1023C00007EE904AF8EEE77A53D0022D2CD0002D7C
:1023D00039D0136BB7EE006ADFED395AC3F3080347
:1023E00006EE903A334BB3FBF7F3F8EEE66AE7EE0E
:1023F000A56A07EE103A2E4BB8EEC77A1B6BC3F3F3
:10240000462376EE867A013327EE277A07EE903A56
:10241000F8EEE76AF0BCC7EE267AFCEEE77A17EE34
:10242000900A704725487047136BB7EE006A224A3E
:10243000C3F30803DFED225A07EE103AB2FBF7F3BD
:10244000F8EEC76AD3E713689B0621D51068B7EE8C
:10245000006A136BC0F3C1021848C3F30803DFED31
:10246000185AD04007EE103AB0FBF7F3F8EEC76AFF
:10247000BDE7136BB7EE006A0E49C3F30803DFED47
:10248000105A07EE103AB1FBF7F3F8EEC76AAEE761
:10249000136BB7EE006A0948C3F30803DFED085A6F
:1024A00007EE103AB0FBF7F3F8EEC76A9FE700BFFC
:1024B0000044025800093D0000127A000090D00349
:1024C00000000039684A136803F007038B422DE9C6
:1024D000F0410D4604460CD2136823F007030B436A
:1024E0001360136803F007038B4202D00120BDE89C
:1024F000F0812368980706D55C49E0688A6922F074
:102500000F0202438A61D9072FD5584AA1689369FF
:1025100023F470630B43936161681368022900F030
:102520009780032900F09080012900F098805E07D1
:10253000DCD54E4E41F28838336923F007030B4354
:102540003361FFF7EFFA63680746022B60D0032B75
:1025500069D0012B05D171E0FFF7E4FAC01B4045BB
:102560007AD8336913F0380FF6D13F4A136803F075
:102570000703AB4209D9136823F007032B43136009
:10258000136803F00703AB42B0D12368580706D5A0
:10259000364920698A6922F0700202438A6119076C
:1025A00006D532496069CA6922F070020243CA61E5
:1025B000DA0606D52D49A069CA6922F4E062024311
:1025C000CA619B0606D5294AE169136A23F07003A4
:1025D0000B431362FFF7CEFE244A4FF4807103468B
:1025E000926991FAA1F1B1FA81F102F47062204C82
:1025F0000020CA401F49A25CD3400B60FFF756FA87
:102600000020BDE8F081FFF78DFAC01B404523D8BC
:10261000336903F03803102BF5D1A6E7FFF782FAF0
:10262000C01B404518D8336903F03803182BF5D187
:102630009BE7FFF777FAC01B40450DD8336903F0DD
:102640003803082BF5D190E79B013FF572AF4DE7BA
:102650009A033FF56EAF49E70320BDE8F081DF053F
:102660003FF567AF42E700BF002000520044025828
:1026700060C403081450002008B500F0B1F9084BFD
:1026800001229B6992FAA2F2B2FA82F203F00F03DE
:102690000449D340044ACB5CD840106008BD00BF59
:1026A0000044025860C403081850002008B5FFF722
:1026B000E3FF074B1022DB6992FAA2F2B2FA82F230
:1026C00003F070030349D340CB5CD84008BD00BF82
:1026D0000044025860C4030808B5FFF7CDFF074B5C
:1026E0004FF48072DB6992FAA2F2B2FA82F203F43A
:1026F000E0630349D340CB5CD84008BD0044025896
:1027000060C4030808B5FFF7B7FF074B10221B6A28
:1027100092FAA2F2B2FA82F203F070030349D340B4
:10272000CB5CD84008BD00BF0044025860C4030819
:10273000F0B4504FBC6AB96AFE6A04F00304FB6B44
:10274000C1F3053C06F01006012CC3F3CC0306FBD5
:1027500003F607EE906AB8EEE77A48D0022C6BD009
:10276000002C53D0BB6BB7EE006ADFED435AC3F3C6
:10277000080306EE903A414BB3FBFCF3F8EEE66A31
:10278000E7EE256A3B4A07EE903A936BF8EEE77A5C
:10279000C3F3462336EE867A0133F0BC67EE877AC0
:1027A00007EE103AB8EEC77AC7EE876AFCEEE66A23
:1027B000C0ED006A936BC3F30643013307EE103A92
:1027C000B8EEC77AC7EE876AFCEEE66AC0ED016A2A
:1027D000936BC3F30663013307EE103AB8EEC77A82
:1027E000C7EE876AFCEEE66AC0ED026A7047BB6B13
:1027F000B7EE006A2149C3F30803DFED1F5A07EE65
:10280000903AB1FBFCF3F8EEE76AB9E73B689B0648
:1028100021D53A68B7EE006ABB6BC2F3C102184D0E
:10282000C3F30803DFED145AD54007EE903AB5FB29
:10283000FCF3F8EEE76AA3E7BB6BB7EE006A114A58
:10284000C3F30803DFED0C5A07EE903AB2FBFCF33A
:10285000F8EEE76A94E7BB6BB7EE006A084CC3F387
:102860000803DFED055A07EE903AB4FBFCF3F8EEEF
:10287000E76A85E7004402580000003900093D007E
:102880000090D00300127A00F0B4504FBC6AB96ACD
:10289000FE6A04F003047B6CC1F3055C06F48076E9
:1028A000012CC3F3CC0306FB03F607EE906AB8EEE7
:1028B000E77A48D0022C6BD0002C53D03B6CB7EE9B
:1028C000006ADFED435AC3F3080306EE903A414B2A
:1028D000B3FBFCF3F8EEE66AE7EE256A3B4A07EE47
:1028E000903A136CF8EEE77AC3F3462336EE867A15
:1028F0000133F0BC67EE877A07EE103AB8EEC77A7C
:10290000C7EE876AFCEEE66AC0ED006A136CC3F39B
:102910000643013307EE103AB8EEC77AC7EE876A6E
:10292000FCEEE66AC0ED016A136CC3F30663013383
:1029300007EE103AB8EEC77AC7EE876AFCEEE66A91
:10294000C0ED026A70473B6CB7EE006A2149C3F3E1
:102950000803DFED1F5A07EE903AB1FBFCF3F8EEE7
:10296000E76AB9E73B689B0621D53A68B7EE006A8B
:102970003B6CC2F3C102184DC3F30803DFED145AD8
:10298000D54007EE903AB5FBFCF3F8EEE76AA3E713
:102990003B6CB7EE006A114AC3F30803DFED0C5A33
:1029A00007EE903AB2FBFCF3F8EEE76A94E73B6C73
:1029B000B7EE006A084CC3F30803DFED055A07EED3
:1029C000903AB4FBFCF3F8EEE76A85E7004402585E
:1029D0000000003900093D000090D00300127A0089
:1029E00008B5FFF7C7FC084B4FF480729B6992FA59
:1029F000A2F2B2FA82F203F470630449D340044AAB
:102A0000CB5CD840106008BD0044025860C4030885
:102A1000145000202DE9F04F0446806AAD4F87B076
:102A2000A368216940EA0302666923680A43E169F1
:102A3000D4F80CC032431E68A74D37400A43A6693C
:102A4000AB4242EA07021A605A6822F4405242EA54
:102A50000C025A607BD0226AB0F1005F46EA02069F
:102A600079D09D689D4A606A2A409D4D3243AB42B1
:102A70009A60DA6A22F00F0242EA0002DA626FD04C
:102A8000984A93424DD0984A934200F0A881974AC1
:102A9000934200F0CB81964A934200F08B81954A95
:102AA000934200F0CD81944A934200F01783934AF9
:102AB000934200F0EB82884A934239D1904B9B6D50
:102AC00003F00703052B36D88E4E334493F8345069
:102AD000202D00F2F182012D2DD9AB1E1E2B2AD8FC
:102AE000DFE813F0510229004902290029002900DA
:102AF0003E02290029002900290029002900290077
:102B00003C02290029002900290029002900290068
:102B1000290029002900290029002900290029006D
:102B20000C02774A526D02F00702052A40F2F0804B
:102B3000B1F5004F04D00125284607B0BDE8F08F5D
:102B4000002201252846DA6007B0BDE8F08FB0F119
:102B5000005F40F0A582D4E90B200243164380E7D2
:102B6000674A526D02F03802282AE1D8654DAD5C03
:102B7000B1F5004F00F0D480202D00F22581202DEA
:102B8000D9D801A252F825F0CB2C00089F2C0008C0
:102B9000372B0008372B00086F2C0008372B000854
:102BA000372B0008372B00083B2C0008372B000878
:102BB000372B0008372B0008372B0008372B00086D
:102BC000372B0008372B00082D2C0008372B000866
:102BD000372B0008372B0008372B0008372B00084D
:102BE000372B0008372B0008372B0008372B00083D
:102BF000372B0008372B0008372B0008372B00082D
:102C0000372B0008372B00080D2C00083D494FF4E6
:102C100000426468002501EB4000818FB2FBF1F2B5
:102C200002EB5402B2FBF4F292B28BE73549002575
:102C3000646801EB4000344AEFE7314A156815F04B
:102C4000200500F01D82166800252E49C6F3C10636
:102C50002E4A01EB40006168F240808FB2FBF0F237
:102C600002EB5102B2FBF1F292B2DA6064E768461D
:102C70000025FFF75DFD234A616A019B02EB4102DB
:102C8000928FB3FBF2F3D4E9000103EB5103B3FBE2
:102C9000F1F39BB2C360284607B0BDE8F08FFFF7A1
:102CA0001BFD0025174A636A616802EB4302246832
:102CB000938FB0FBF3F303EB51032846B3FBF1F31F
:102CC0009BB2E36007B0BDE8F08FFFF7EFFC0D4A61
:102CD000E9E700BFF369FFCF000C0058FFF4FF11D4
:102CE000001001400044004000480040004C0040FB
:102CF000005000400014014000780040007C00407B
:102D000000440258EC53000800093D000090D00335
:102D1000B44DB1F5004F2A4492F82C507FF42CAFFB
:102D2000202D66D8202D3FF60BAF01A252F825F0DA
:102D3000F52E0008C52E0008412B0008412B000885
:102D4000B52E0008412B0008412B0008412B00083C
:102D50008F2E0008412B0008412B0008412B000852
:102D6000412B0008412B0008412B0008412B000893
:102D7000812E0008412B0008412B0008412B000840
:102D8000412B0008412B0008412B0008412B000873
:102D9000412B0008412B0008412B0008412B000863
:102DA000412B0008412B0008412B0008412B000853
:102DB000552E00088C4A526D02F00702052A3FF694
:102DC000B7AE8A4DAD5CD3E6402D7FF4B4AE03A818
:102DD0000025FFF759FD834A616A049B4EE7824A4A
:102DE000526D02F00702052A3FF6A2AE804DAD5C9F
:102DF000BEE6402D7FF4A4AE03A80025FFF744FDF6
:102E00007848636A049A00EB4300808FD4E9003667
:102E1000B2FBF0F2710801EB4201B1FBF6F1C1F334
:102E2000420221F00F010A4392B28BE66E4A526DC4
:102E300002F00702052A3FF67BAE6E4DAD5C97E6C9
:102E4000694A526D02F03802282A3FF671AE6A4D87
:102E5000AD5C8DE6634E4FF400426468002506EBDE
:102E600040006108808FB2FBF0F201EB4201B1FB40
:102E7000F4F1C1F3420221F00F010A4392B261E67C
:102E8000584A0025646802EB40005C4AE9E7564A6C
:102E9000156815F0200500F02D81166800255149B0
:102EA000C6F3C106564A01EB40006468F240808FC9
:102EB0006108D8E768460025FFF73AFC4948636A8D
:102EC000019AA0E7474E0025FFF706FC636A616898
:102ED00006EB430623684A08B48FB0FBF4F002EB1C
:102EE0004002B2FBF1F1C1F3420221F00F010A43AB
:102EF00092B227E63B4EFFF7D9FBE7E74FF40040DD
:102F0000676807EB470383423FF615AEB0EB073F18
:102F10003FF611AE202D00F2D780012D14D9AB1E43
:102F20001E2B11D8DFE803F08E10701010104C101B
:102F3000101010101010321010101010101010106F
:102F400010101010101098000125A0F540722D4BA4
:102F50009A423FF6F0AD2368D860EDE52748CFE709
:102F6000214B1A68920640F1C3801B682448C3F3C2
:102F7000C103D840C4E76846FFF7DAFB0198002890
:102F8000BED10546D8E5FFF7BDFBF8E7636A00212F
:102F90001A48002506EB43039A8F0023FDF7F0F94A
:102FA0003A464FEA01292B467F084FEA002849EAB2
:102FB000106918EB070049F10001FDF7E1F9C4E7DA
:102FC000094A136813F0200800F09A801268002163
:102FD000636AC2F3C1020A4806EB43030D46D040C0
:102FE000DAE700BFEC530008004402581854000808
:102FF0001854000818540008EC53000800093D005C
:103000000090D003FFFC0F0068460025FFF790FBFF
:10301000636A0198294606EB4303D4F804809A8F2B
:103020000023FDF7ADF942460F022B464FEA580840
:10303000060247EA106716EB080047F10001FDF7AA
:103040009FF982E7FFF75EFB636A0021D4F80480F2
:1030500006EB43030D46E2E7636A4FF40045780848
:103060003A4606EB43064FF4807700210023B68FE3
:10307000B5FBF6F5E5FB07011D46FDF781F964E7B1
:103080002C49646801EB40002B4AC6E52B4A526D7F
:1030900002F00702052A3FF64BAD294DAD5C67E50E
:1030A0009968284A0A4032439A60DA6A616A22F0D3
:1030B0000F020A43DA6201E5402D7FF43CAD03A81C
:1030C000FFF7E2FB04985AE7402D7FF43DAF03A8D9
:1030D0000025FFF7D9FB636A04989BE7174A526DF6
:1030E00002F00702052A3FF623AD174DAD5C3FE520
:1030F000114805E70F4A646802EB40000E4AB0E64B
:10310000636A00210C48454606EB43039A8F00236F
:10311000FDF736F93A464FEA012B43467F084FEA5E
:10312000002A4BEA106B1AEB07004BF10001FDF788
:1031300027F90AE7EC5300080090D0030044025836
:1031400018540008FFF4FF1118540008436BDA0705
:1031500010B406D50168846B4A6822F40032224319
:103160004A609C0706D50168C46B4A6822F4803225
:1031700022434A60590706D50168046C4A6822F464
:10318000802222434A601A0706D50168446C4A68C7
:1031900022F4004222434A60DC0606D50168846CB2
:1031A0008A6822F4805222438A60990606D5016813
:1031B000C46C8A6822F4005222438A605A060AD5F7
:1031C0000168046D4A68B4F5801F22F4801242EA57
:1031D00004024A600BD01B0606D50268816D536855
:1031E00023F400230B4353605DF8044B70474A6897
:1031F000446D22F4C00222434A60ECE72DE9F84313
:10320000089F80460E4615469946D8F8002001E0F2
:103210007B1C0AD1D46936EA04030CBF01240024C4
:10322000AC42F5D00020BDE8F8833FB1FEF77AFC50
:10323000A0EB0900B842E8D9D8F800201368202193
:103240000024032023F4D0731360936823F0010358
:10325000936088F8791088F8784088F87A10E2E767
:103260002DE9F0411F4690F8793082B0202B5ED1D5
:103270000E46002957D0B2FA82F315465B09002AA0
:1032800051D090F878200446012A50D00122C3671B
:10329000212380F8782080F87930FEF743FCA4F8E9
:1032A0006250B4F862208046A4F8605092B24AB9E5
:1032B00029E013F8011B22681E461185B4F862202C
:1032C00092B202B3B4F86250434600970022013D27
:1032D00080212046ADB2A4F86250FFF78FFF33463D
:1032E00048BBA268B2F5805FE3D12269002AE0D131
:1032F00036F8023B2268C3F308031385B4F8622052
:1033000092B2002ADED14346002240212046009797
:10331000FFF774FF78B9202384F8780084F87930B7
:1033200002B0BDE8F081012002B0BDE8F0810220CA
:1033300002B0BDE8F081032002B0BDE8F08100BF1B
:1033400070B50026044682B0C667FEF7EBFB236823
:1033500005461A6812070DD41B685B0719D40023B1
:103360002022184684F8792084F8783084F87A206E
:1033700002B070BD6FF07E4032462B464FF4001114
:1033800000902046FFF73AFF78B923681B685B0777
:10339000E5D56FF07E402B4600224FF4800100906F
:1033A0002046FFF72BFF0028D9D0032002B070BDC4
:1033B00090B310B590F87930044603F0FF0233B3B0
:1033C00022682423204684F87930136823F001030F
:1033D0001360FFF71FFB012817D0636B8BB92368BD
:1033E00020465A6822F490425A609A6822F02A02D3
:1033F0009A601A6842F00102BDE810401A60FFF7B7
:103400009FBF2046FFF7A2FEE9E7012010BD80F82C
:10341000782000F0D3FED3E70120704700B583B0D9
:103420004FF6FF730122019001A90348FFF718FF2F
:10343000019803B05DF804FBB050002070B59CB05B
:10344000202200210AA800F0F1FF2022002101A87B
:1034500000F0ECFF214B0021DA68184622F004024C
:10346000DA6000919A6942F440429A619B6903F4E0
:1034700040430093009B83699B04FCD520200126D8
:103480000224002304220C21322513930994129460
:10349000169418941492179215951991CDE90C6011
:1034A00009A8CDE91A33FEF7E3FC034600B1FEE7B5
:1034B0003F22032608250393019240234FF48062A4
:1034C000214601A802960693CDE90453CDE90723CE
:1034D000FEF7F8FF00B1FEE71CB070BD00480258CF
:1034E0002DE9F04FA7B0BFF34F8FBFF36F8FC44BE1
:1034F0000021C3F85012BFF34F8FBFF36F8F5A698B
:1035000042F400325A61BFF34F8FBFF36F8FC3F89D
:103510008410BFF34F8FD3F8801043F6E074C1F3EB
:103520004E32C1F3C901520102EA0405084645EAD8
:1035300080760138C3F86062461CF8D1203A12F157
:10354000200FF1D1BFF34F8F5A6942F480325A6194
:10355000BFF34F8FBFF36F8FFEF7C8FA0024FFF75A
:103560006DFFA84B2594032524944FF6FF76D3F8DE
:10357000E02021A9A44842F01002C3F8E020D3F8CB
:10358000E02002F010021492149AD3F8E02042F0E6
:103590000402C3F8E020D3F8E02002F00402159200
:1035A000159AD3F8E02042F02002C3F8E020D3F8C7
:1035B000E02002F020021692169AD3F8E02042F0A2
:1035C0008002C3F8E020D3F8E02002F080021792D6
:1035D000179AD3F8E02042F00102C3F8E020D3F8B4
:1035E000E02002F001021892189AD3F8E02042F08D
:1035F0000202C3F8E020D3F8E02002F002021992A0
:10360000199AD3F8E02042F04002C3F8E020D3F842
:10361000E02002F040021A921A9AD3F8E02042F019
:103620000802C3F8E020D3F8E030239403F0080345
:103630001B931B9BCDE92165FEF7F2FA21A9734884
:103640002394CDE92165FEF7EBFA21A97048239474
:10365000CDE92165FEF7E4FA21A96E482394CDE96E
:103660002155FEF7DDFA49F6FF7321A96A48219337
:10367000CDE92254FEF7D4FA21A968482394CDE974
:103680002165FEF7CDFA21A965482394CDE921658E
:10369000FEF7C6FA21A963482394CDE92165FEF718
:1036A000BFFA61484FF4E13260490C230461C0E97C
:1036B0000244C0E90644C0E90844C0E90A44C0E93C
:1036C0000C44C0E900124361FFF772FE002840F08D
:1036D0003485574BDFF888B1A3F54053DFF8848178
:1036E000139099461293DBF800100024DBF80820B1
:1036F0000B68DBF8040043F080730B600460136810
:1037000043F001031360DBF804301C60494B0125D2
:10371000494820260D930422454B314607907F20CF
:1037200008930823454F0E9300937B230C9409962E
:10373000029510940F97CDE90A030320404B0190A6
:103740004048CDE90555CDE90355FCF795FFDBF879
:1037500004301B68C8F8003096233B4F12980822AB
:10376000DFF804C14FF0030E0B9305230890314698
:103770000E930C94354B0A940996CDF804E0009210
:10378000CDF834C02A481094CDE906572B4FCDE927
:103790000455CDE902550F97FDF724FBDBF8043003
:1037A0001B68C8F804302A4B4FF0100A294F052235
:1037B0000D937E2308973146274F48460B93A7F178
:1037C00080030E920C9408220A9409960195CDF874
:1037D00000A01094CDE90657184FCDE90444CDE977
:1037E00002440F97FCF748FFDBF804301B68C8F869
:1037F00008301A484FF0030C129F77230D9035E0E4
:1038000000ED00E000440258001002580008025881
:1038100000140258001C025800000258000402580C
:1038200000180258000C0258B05000200048004018
:10383000143000208079014A605500083051002082
:103840004054000860C40008C855000880550008AE
:10385000009CD84D1410002068560008809B3F4201
:10386000080000203075002000D5E64606200897A5
:103870005246B84F31460E9002200797B64F0B9331
:103880000690B64B0C940A94CDF824A0B44810943A
:103890000F97CDE90445CDE90245CDE900ACFDF730
:1038A000A1FADBF804301B68C8F80C30AD4F842354
:1038B000DFF808C3062208975146AB4F48460B93E2
:1038C000A7F500730E920C9452460A94CDF824A0EA
:1038D000CDF834C01094CDE906579F4FCDE904448C
:1038E000CDE90244CDE900650F97FCF7C5FEDBF892
:1038F00004301B68C8F81030129F4FF07E0C9B4BB1
:103900000521089732469A4F0E9151460D930C941B
:10391000984BCDF824A093481094CDE90A4C4FF071
:10392000030CCDE906578C4FCDE90455CDE902557E
:10393000CDE9006C0F97FDF755FADBF804301B68F2
:10394000C8F81430874F7D23DFF874C20622089729
:103950005146894F48460B93A7F580630E920C940D
:1039600032460A94CDF824A0CDF834C01094CDE9A5
:103970000657794FCDE90444CDE90244CDE900650D
:103980000F97FCF779FEDBF804301B68C8F8183095
:1039900008274FF07B0C794B062209975146129F5E
:1039A0000E9232460897764F0D9307976A4F754BE4
:1039B0000C9402946B4810940F97CDE90A4C4FF089
:1039C000020CCDE9055C4FF0030CCDE90354CDE9C1
:1039D000006CFDF707FADBF804301B68C8F81C30F0
:1039E00061233246684E08210B930723DFF8D4C1C8
:1039F000484608960E934023644E00930C94644B03
:103A00000A9409910195CDF834C0CDE90656CDE967
:103A10000444CDE90244CDE90F74FCF72DFEDBF838
:103A200004301B68C8F82030129F052208214FF08F
:103A3000030C08977623574F0E924022564E0B9355
:103A40000C94564B0A940991CDF804C000920D963F
:103A50004D481094CDE906573F4FCDE90455CDE9C7
:103A600002550F97FDF7BEF9DBF804301B68C8F864
:103A70002430454F072206F1AE76082108976623C9
:103A8000474F06F5A8560E9240220B934846454BE9
:103A90000C940A940991019500920D961094CDE929
:103AA00006572D4FCDE90444CDE902440F97FCF7AA
:103AB000E3FDDBF804301B68C8F8283006224FF01D
:103AC000020E394F672312980426DFF8FCC0082144
:103AD0000E9240220797204F08900B930C94334B83
:103AE0000A9402940092CDF834C0099626481094A6
:103AF0000F97CDE9055E4FF0030ECDE90354CDF8E5
:103B000004E0FDF76FF9DBF804301B68C8F82C30CF
:103B1000274F8623DFF8B4C0072208973146254F88
:103B200048460B9380230E92402200930C94224B24
:103B30000A9409960195CDF834C01094CDE9065742
:103B4000054FCDE90444CDE902440F97FCF794FDFD
:103B50003EE000BF3857000830510020A85600084A
:103B60001410002014300020785900080092D375FA
:103B7000185B0008F8590008985F00088003695531
:103B8000386100081860000814400020B869000877
:103B9000B8610008F86C000880FB7F70B86A000804
:103BA000F86D000860B4030838710008F86E00086A
:103BB00014480020387200086094030800A8E868E0
:103BC00080306B53803DC17580A4AA680082404D4F
:103BD000DBF804301B68C8F83030129F0522DFF88C
:103BE00040C34FF0030E08976523B44F31460E9241
:103BF00080220B930C94B24B0A940996CDF804E002
:103C00000092CDF834C0AF481094CDE90657AE4FBE
:103C1000CDE90455CDE902550F97FDF7E3F8DBF840
:103C200004301B68C8F83430A64F0722DFF8F4C20E
:103C30006D2308973146A54F48460E9280220B937C
:103C40000C94A34B0A94099601950092CDF834C0C8
:103C50001094CDE906579C4FCDE90444CDE90244C8
:103C60000F97FCF709FDDBF804301B68C8F8383003
:103C7000129F0522DFF8B0C24FF0030E08975B23B6
:103C8000944F31460E9280220B930C94924B0A94DF
:103C90000996CDF804E00092CDF834C0894810941C
:103CA000CDE90657884FCDE90455CDE902550F9768
:103CB000FDF798F8DBF804301B68C8F83C30814FFA
:103CC0000722864B4FF0600A08973146844F4846DA
:103CD0000E9280220D930C94824B0A9409960195C2
:103CE0000092CDF82CA01094CDE90657764FCDE97F
:103CF0000444CDE902440F97FCF7BEFCDBF8043026
:103D00001B68C8F84030129F80224FF0030C764B9E
:103D100008970621754F0E9131460D930C94744B04
:103D20000996CDF804C0009266481094CDE9065774
:103D3000654FCDE90A4ACDE90455CDE902550F9703
:103D4000FDF750F8DBF804301B68C8F844305D4FCD
:103D50000722DFF8D8C1562308973146654F4846F9
:103D60000E9280220B930C94634B0A940996019552
:103D70000092CDF834C01094CDE90657524FCDE9EA
:103D80000444CDE902440F97FCF776FCDBF80430DD
:103D90001B68C8F84830594B0622129F4FF0030E9B
:103DA000DFF88CC17F20089703F590670E92802280
:103DB0000B9031460C94CDF804E00092CDF834C05D
:103DC00040481094CDE906573F4FCDE90964CDE94D
:103DD0000455CDE902550F97FDF704F8DBF80430E0
:103DE0001B68C8F84C30374F0722454B4FF02A0A62
:103DF00008973146434F48460E9280220D930C940B
:103E0000414B0A94099601950092CDF82CA010948C
:103E1000CDE906572C4FCDE90444CDE902440F9774
:103E2000FCF72AFCDBF804301B68C8F85030129FFE
:103E30000622DFF800C14FF0030E08975123334FDD
:103E400031460E9280220B930C94314B0A940996C2
:103E5000CDF804E00092CDF834C01A481094CDE9B2
:103E60000657194FCDE90455CDE902550F97FCF7D8
:103E7000B9FFDBF804301B68C8F85430114F8022BA
:103E8000244B072108974846234F0E9131460D9346
:103E90000C94224B0996019500921094CDE9065797
:103EA000094FCDE90A46CDE90444CDE902440F9714
:103EB000FCF7E2FBDBF804301B683DE0B878000853
:103EC000387400081448002030510020B87A0008E7
:103ED0006054030838810008B87C000800F34546A8
:103EE000388300086014030880E04570B889000832
:103EF00038850008B88B000860D40208B88D000827
:103F00008042E8553894000860940208B89A000886
:103F10003896000880530A58B89C0008605402087C
:103F2000808DA05000CEB5420092A056806C205EDD
:103F300080279151801FB34BC8F85830129F4FF023
:103F4000020C80227D4B089707217D4FCDF824C0BD
:103F500007977C4F0E9131460D930C947A4B029447
:103F600000927A4810940F97CDE9055C4FF0030C4E
:103F7000CDE90A4ACDE90354CDF804C0FCF732FF7D
:103F8000DBF804301B68C8F85C30714F0221714BBC
:103F90004FF4807A089706226F4F40200E928022BD
:103FA0000B9048460D930C946C4B0A940991019523
:103FB000CDF800A01094CDE90657624FCDE9044436
:103FC000CDE902440F97FCF757FBDBF804301B6880
:103FD000C8F86030129B4FF0A60E614F02214FF0DF
:103FE000030C089307225F4B0D97564F0E925246D3
:103FF0000C940A940991CDF82CE0554810940F9731
:10400000CDE90653CDE90455574BCDE90255CDE92D
:1040100000ACFCF7E7FEDBF804301B68C8F864303E
:104020000E9602214A4E4423504F52460896484667
:104030004F4E0D97434F0B930C944E4B0A9409919E
:1040400010940F97CDE90656CDE90444CDE902441A
:10405000CDE900A5FCF710FBDBF804301B68C8F8BD
:104060006830129B52463A4804930223039719463C
:10407000029501930094FDF723FCDBF804301B68E4
:10408000C8F86C303C4B09264FF000455A21069386
:1040900052463A4B4846009105930A233849079700
:1040A00002940194CDE90356FDF7D0F9DBF8043012
:1040B0001B68C8F870301CAE21AD3746AC460023F3
:1040C0003049184611F8012F824203DD10463B604B
:1040D000CCF8002001330A2BF4D157F8043B0CF143
:1040E000040C254AD45421AB9F42E8D1DBF80430BC
:1040F0001B68C8F874301399D8F8742022480F460A
:1041000000F09CF9D8F874102048013700F096F9B7
:104110001F48204C00F018FA56F8041B204655F8AA
:10412000042B00F08BF921AB9E42F5D14FF4FA60DD
:104130001397FDF7FDFCFFF7D6BAFEE78084B76161
:1041400038A3000830510020B89E00081448002011
:10415000144C002000ED034C38A5000860D4010881
:104160000091227D38B2000838A9000880F9DE5C91
:1041700038B6000860D400080A50002038C400088F
:1041800038BA00080950002070C403088CC4030822
:10419000A0C40308B8C40308074B82B0D3F8F420C6
:1041A00042F00202C3F8F420D3F8F43003F0020323
:1041B0000193019B02B0704700440258254B0268EE
:1041C00070B59A4288B04FF00004CDE90344CDE9C0
:1041D0000544079401D008B070BD1F4B02264FF470
:1041E00000600725D3F8E82003A942F48022C3F831
:1041F000E820D3F8E82002F480220092009AD3F855
:10420000E0203243C3F8E020D3F8E02032400192AE
:10421000019AD3F8E02042F00802C3F8E020D3F876
:10422000E030039003F008030C4805940293029BCE
:10423000069404960795FDF7F3FC4FF4807303A9E9
:104240000748049607950393CDE90544FDF7E8FC7C
:1042500008B070BD004800400044025800040258F5
:10426000000C0258704700BF704700BFFDF74EBCFE
:1042700070B5161E07DD0C468D19AFF3008004F8EB
:10428000010BA542F9D1304670BD00BF70B5161EB6
:1042900007DD0C468D1914F8010BFFF7BFF8A54296
:1042A000F9D1304670BD00BF0D490A6808B5034614
:1042B00032B113446846834209D810460B6008BDEA
:1042C000084802460860684613448342F5D900F066
:1042D00075F80C234FF0FF320360104608BD00BF95
:1042E000A0500020B87500204FF0FF30704700BF8D
:1042F0004FF4005300204B60704700BF012070470F
:104300000020704714490022144B154870B4D1F8AE
:1043100088400126134D44F47004C1F888401C689D
:1043200034431C601A611C6820404FF00064186020
:104330009A61DA611A629A62DA621A635A639A635C
:10434000DA631A645A64186820F4802018601A66C8
:104350002E608C6070BC704700ED00E00044025895
:104360007FEDF6EA08810051DFF834D0002103E048
:104370000C4B5B58435004310B480C4B42189A428B
:10438000F6D30B4A02E0002342F8043B094B9A4261
:10439000F9D3FFF7B7FF00F017F8FFF7A1F8704760
:1043A0000000022070C5030800000020805000209B
:1043B00080500020B8750020FEE70000014B18680F
:1043C000704700BF1C50002070B50D4D0D4C641B94
:1043D000A4100026A64209D10B4D0C4C00F0FAFFA8
:1043E000641BA4100026A64205D170BD55F8043BFD
:1043F00098470136EEE755F8043B98470136F2E757
:1044000068C5030868C5030868C503086CC50308C8
:104410000A44914200F1FF3300D1704710B511F802
:10442000014B03F8014F9142F9D110BD02440346FC
:10443000934200D1704703F8011BF9E70FB40A4B10
:1044400013B51C6824B1A36913B9204600F05EFAC5
:1044500005AB049AA1680193204600F02FFC02B03E
:10446000BDE8104004B070471C50002070B50E46E7
:10447000054618B183690BB900F048FAAB69AC681E
:1044800013B9284600F042FA2C4B9C4220D16C68AC
:10449000636EDB0705D4A389980502D4A06D00F0F4
:1044A000D3FAA38919071DD52369DBB1013EA3689F
:1044B00016F8011F013BA36039BB002B38DA2246F6
:1044C0000A21284600F048F8013011D00A2511E0F1
:1044D0001B4B9C4201D1AC68DAE71A4B9C4208BFE7
:1044E000EC68D5E72146284600F088F80028DDD0A2
:1044F0004FF0FF35636EDA0705D4A3899B0502D41C
:10450000A06D00F0A2FA284670BD002B04DAA26963
:104510009A4206DC0A2904D023685A1C22601970CA
:10452000C5E72246284600F017F80130BFD1DFE783
:1045300023680A255A1C22601D70DBE7ECC40308BF
:104540000CC50308CCC40308024B01461868FFF7EA
:104550008DBF00BF1C500020F8B50E46144605461E
:1045600018B183690BB900F0D1F9214B9C422BD1D2
:104570006C68A369A360A3891A072FD523696BB35D
:1045800023692068C01A6369F6B28342374604DCA7
:104590002146284600F026F930BBA368013BA36002
:1045A00023685A1C22601E7063690130834204D064
:1045B000A389DB0706D50A2E04D12146284600F040
:1045C00011F988B93846F8BD0A4B9C4201D1AC6854
:1045D000CFE7094B9C4208BFEC68CAE72146284652
:1045E00000F00CF80028CBD04FF0FF37EAE700BF0F
:1045F000ECC403080CC50308CCC40308324B70B5E7
:104600001D6806460C4625B1AB6913B9284600F073
:104610007DF92E4B9C420FD16C68A389B4F90C2014
:1046200019072CD4DD0611D40923336042F040036E
:10463000A3814FF0FF303EE0254B9C4201D1AC6896
:10464000EBE7244B9C4208BFEC68E6E7580712D51D
:10465000616B41B104F14403994202D0304600F04D
:1046600059FA00236363A38923F02403A381002361
:10467000636023692360A38943F00803A38123694E
:104680004BB9A38903F42073B3F5007F03D021460F
:10469000304600F0FFF9A089B4F90C2010F00103B6
:1046A0000AD00023A36063695B42A361236943B915
:1046B00010F08000BAD170BD810758BF6369A36054
:1046C000F4E70020F7E700BF1C500020ECC403080B
:1046D0000CC50308CCC403088A892DE9F0410546BE
:1046E00010070C4658D44B68002B05DC0B6C002BD4
:1046F00002DC0020BDE8F081E66A002EF9D000233C
:1047000012F480522F682B6032D0606DA3895A0753
:1047100005D56368C01A636B0BB1236CC01A002304
:104720000246E66A216A2846B047431CA38906D19F
:1047300029681D292CD82A4ACA40D60728D5002224
:104740006260D9042269226004D5421C01D12B6821
:1047500003B96065616B2F600029CAD004F144037E
:10476000994202D0284600F0D5F900206063C1E7E5
:10477000216A01232846B047411CC7D12B68002B72
:10478000C4D01D2B01D0162B01D12F60B1E7A38916
:1047900043F04003A381ADE70F69002FA9D0930731
:1047A0000E6808BF4B690F6018BF0023A6EB07080F
:1047B0008B60B8F1000F9CDD216AA66A43463A4639
:1047C0002846B047002806DCA38943F04003A381B4
:1047D0004FF0FF308EE70744A8EB0008E9E700BF81
:1047E0000100402038B50B6905460C4613B9002579
:1047F000284638BD18B183690BB900F087F8144B0F
:104800009C421BD16C68B4F90C30002BEFD0626E67
:10481000D00704D4990502D4A06D00F015F92846FC
:104820002146FFF759FF636EDA070546E0D4A389F6
:104830009B05DDD4A06D00F008F9D9E7054B9C423B
:1048400001D1AC68DFE7044B9C4208BFEC68DAE7B3
:10485000ECC403080CC50308CCC40308002310B53E
:104860000446C0E90033C0E90433836081814366B4
:10487000C2818361194608225C30FFF7D7FD054BE2
:104880006362054BA362054BE362054B246223631D
:1048900010BD00BF6552000887520008BF520008D3
:1048A000E3520008014900F0AFB800BFE547000837
:1048B00070B54A1E682555430E4605F1740100F097
:1048C00079F9044640B10021C0E900160C30A0601F
:1048D00005F16802FFF7AAFD204670BD014800F00F
:1048E000B3B800BFB0750020014800F0AEB800BFFB
:1048F000B0750020014800F0A7B800BFAB750020DC
:10490000014800F0A2B800BFAB75002010B5044606
:10491000FFF7F0FFA3691BB1BDE81040FFF7F0BF40
:10492000C4E912332365134B134A1B68A262A342E6
:1049300004BF0123A361204600F020F860602046F8
:1049400000F01CF8A060204600F018F80022E0609B
:1049500004216068FFF782FFA06801220921FFF7A8
:104960007DFFE06802221221FFF778FF0123A36197
:10497000D2E700BFC8C40308A5480008F8B5074639
:10498000FFF7ACFF1E4B1E68B36913B93046FFF743
:10499000BDFF4836D6E90134013B03D533680BB37C
:1049A0003668F7E7B4F90C50D5B9164BE36004F15B
:1049B0005800656600F047F8FFF796FFC4E9015517
:1049C000C4E904552560A5610822294604F15C006C
:1049D000FFF72CFDC4E90D55C4E912552046F8BD7A
:1049E0006834D9E704213846FFF762FF0446306097
:1049F0000028D5D1FFF778FF0C233B60EEE700BF1E
:104A0000C8C403080100FFFF2DE9F84306468846A5
:104A100000F148040027D4E90195B9F1010905D551
:104A20002468002CF7D13846BDE8F883AB89012B08
:104A300007D9B5F90E30013303D029463046C047B7
:104A400007436835E9E770477047704770B50E4611
:104A5000B1F90E10002996B014461D4607DA00235E
:104A60002B60B3891A0610D44FF480630EE06A46B7
:104A700000F05EFC0028F2DB019A02F47042A2F51D
:104A800000535A425A412A60EEE740230020236037
:104A900016B070BD8B8973B59D0706460C4607D5C9
:104AA00004F14703236023610123636102B070BDF9
:104AB00001AB6A46FFF7CAFF00990546304600F091
:104AC00079F848B9B4F90C309A05EFD423F0030310
:104AD00043F00203A381E3E70D4BB362A389206097
:104AE00043F08003A381009B6361019B20615BB164
:104AF000B4F90E10304600F02DFC28B1A38923F044
:104B0000030343F00103A381A0890543A581CDE7F9
:104B1000A548000837B5002948D051F8043C019059
:104B2000002BA1F10404B8BFE41800F035FC204AC2
:104B300001981368154633B96360146003B0BDE88B
:104B4000304000F02FBCA3420BD921686218934279
:104B500004BF1A685B68636004BF521822602C604F
:104B6000ECE71A465B680BB1A342FAD911685518F5
:104B7000A5420BD1246821445418A3421160DDD111
:104B80001C685B68536021441160D7E702D90C238D
:104B90000360D3E7256861198B4204BF19685B681D
:104BA000636004BF491921605460C7E703B030BD9A
:104BB000A8500020F8B5CD1C25F0030508350C2DB4
:104BC00038BF0C25002D064601DBA94203D90C2372
:104BD00033600020F8BD00F0DFFB21490A6814466D
:104BE0009CB9204F3B6823B92146304600F02AFB90
:104BF00038602946304600F025FB431C23D10C23A6
:104C00003360304600F0CEFBE3E723685B1B17D42C
:104C10000B2B03D923601C44256004E06368A24287
:104C20000CBF0B605360304600F0BCFB04F10B007E
:104C3000231D20F00700C21ACCD01B1AA350C9E7CD
:104C400022466468CCE7C41C24F00304A042E3D0ED
:104C5000211A304600F0F6FA0130DDD1CFE700BF6F
:104C6000A8500020AC5000209368013B002B10B4EA
:104C7000936008DA9469A34201DB0A2903D15DF845
:104C8000044BFFF769BC1368581C10601970084684
:104C90005DF8044B7047F8B506460F461446D51824
:104CA000AC4201D1002007E014F8011B3A4630461F
:104CB000FFF7DAFF431CF3D1F8BD00002DE9F04FF8
:104CC0000D469DB014469846064618B183690BB947
:104CD000FFF71CFE894B9D421BD175686B6ED9078F
:104CE00005D4AB899A0502D4A86DFFF7ADFEAB8958
:104CF0001B0701D52B69EBB929463046FFF77EFC2F
:104D0000C0B16B6EDC070ED54FF0FF301DB0BDE8B3
:104D1000F08F7B4B9D4201D1B568DFE7794B9D4217
:104D200008BFF568DAE7AB899805EDD4A86DFFF701
:104D30008CFEE9E70023099320238DF82930CDF874
:104D40000C803023DFF8C0818DF82A304FF0010944
:104D500023469A4613F8012B0AB1252AF9D1BAEB5A
:104D6000040B0BD05B46224629463046FFF793FFE3
:104D7000013000F0AA80099A5A4409929AF800304A
:104D8000002B00F0A28000234FF0FF32CDE9052375
:104D90000AF1010A049307938DF853301A9354468D
:104DA000052214F8011B5848FBF79AFA049AD8B95F
:104DB000D10644BF20238DF85330130744BF2B2363
:104DC0008DF853309AF800302A2B15D0079A5446A4
:104DD00000204FF00A0C214611F8013B303B092B13
:104DE0004ED9B0B1079214E0A0EB080309FA03F31F
:104DF00013430493A246D2E7039B191D1B6803913A
:104E0000002BBBBF5B4242F0020207930793B8BF7F
:104E1000049223782E2B0CD163782A2B35D1039B57
:104E20001A1D1B680392002BB8BF4FF0FF330234EA
:104E30000593DFF8E4A0217803225046FBF750FAEF
:104E400040B14023A0EB0A0003FA00F0049B0343A7
:104E50000134049314F8011B2C488DF82810062205
:104E6000FBF73EFA00283FD0294B1BBB039B0733BF
:104E700023F0070308330393099B3B44099367E737
:104E80000CFB02320C460120A5E7002301340593F8
:104E900019464FF00A0C204610F8012B303A092A27
:104EA00003D9002BC5D00591C3E70CFB01210446B3
:104EB0000123F0E703AB00932A46164B04A93046C2
:104EC000AFF300800746781CD6D16B6ED90705D4A6
:104ED000AB899A0502D4A86DFFF7B7FDAB895B06D5
:104EE0003FF512AF099811E703AB00932A46094B2F
:104EF00004A9304600F080F8E4E700BFECC40308E2
:104F00000CC50308CCC403082CC5030836C5030828
:104F100000000000974C000832C503082DE9F04757
:104F2000164699468A680B69DDF820809342B8BF1F
:104F30001346336091F8432007460C460AB101330B
:104F400033602368990642BF3368023333602568B3
:104F500015F0060506D104F1190AE36832689B1AB8
:104F6000AB4226DC94F84320131E226818BF0123AD
:104F700092062BD404F1430249463846C04701301B
:104F80001ED02368E568326803F00603042B08BFCF
:104F9000AD1AA36822690CBF25EAE5750025934286
:104FA000C4BF9B1AED1800261A34B5421AD100204E
:104FB00008E00123524649463846C047013003D134
:104FC0004FF0FF30BDE8F0870135C6E7E1185A1C05
:104FD000302081F84300224494F8451082F84310B1
:104FE0000233C7E70123224649463846C04701300D
:104FF000E6D00136D9E700002DE9FF470C4691467F
:10500000277E0C99782F80469A4604F1430207D8F0
:10501000622F0AD8002F00F0D880582F00F0A3800C
:1050200004F1420684F842703AE0A7F16303152BBD
:10503000F6D801A050F823F091500008A5500008C0
:10504000215000082150000821500008215000087C
:10505000A5500008215000082150000821500008E8
:1050600021500008B1510008D550000893510008A4
:105070002150000821500008D35100082150000899
:10508000D550000821500008215000089B5100080D
:105090000B681A1D1B680A6004F1420684F842304E
:1050A0000123A3E0256808682E0600F104030AD551
:1050B00005680B60002D03DA2D236D4284F8433020
:1050C0005E480A2319E015F0400F05680B6018BF11
:1050D0002DB2EFE70B682568181D0860280601D57A
:1050E0001D6802E06906FBD51D8854486F2F0CBF70
:1050F00008230A23002184F843106668A660002E66
:10510000A2BF216821F0040121600DB9002E4DD00D
:105110001646B5FBF3F103FB1157C75D06F8017D99
:105120002F46BB420D46F4D9082B0BD12368DF076D
:1051300008D5236961689942DEBF302306F8013C37
:1051400006F1FF36921B2261CDF800A04B4603AA60
:1051500021464046FFF7E2FE01304CD14FF0FF30D0
:1051600004B0BDE8F087354884F8457023680E68C0
:105170001F0656F8045B0E6014D5D90744BF43F0F0
:10518000200323601DB9236823F02003236010232C
:10519000B0E7236843F0200323607823284884F88D
:1051A0004530E3E75E0648BFADB2E6E71646BBE72B
:1051B0000B68266860691D1D0D6035061B6801D5EA
:1051C000186002E07106FBD51880002323611646A3
:1051D000BAE70B681A1D0A601E6862680021304633
:1051E000FBF77EF808B1801B6060636823610023D1
:1051F00084F84330A8E72369324649464046D04701
:105200000130ABD023689B0713D4E068039B98421E
:10521000B8BF1846A4E70123324649464046D04766
:1052200001309BD00135E36803995B1AAB42F2DC95
:10523000EBE7002504F11906F5E700BF3DC50308BB
:105240004EC5030838B5064D0023044608462B60BA
:10525000FFF72AF8431C02D12B6803B1236038BD45
:10526000B475002010B50C46B1F90E1000F0A0F88E
:105270000028ABBF636DA3891B1823F48053ACBF18
:105280006365A38110BD2DE9F0411F468B89DB05C5
:1052900005460C46164605D5B1F90E10022300222C
:1052A00000F068F8A389B4F90E1023F48053A381A9
:1052B00032463B462846BDE8F04100F017B810B52D
:1052C0000C46B1F90E1000F055F8431CA38915BF28
:1052D000606523F4805343F48053A38118BFA381F6
:1052E00010BDB1F90E1000F013B8000038B5074D2D
:1052F00004460846114600222A601A46FEF7C6FFF9
:10530000431C02D12B6803B1236038BDB475002063
:1053100038B5064D0023044608462B60FEF7E4FF2F
:10532000431C02D12B6803B1236038BDB475002043
:1053300038B5074D00230446084611462B60FEF79A
:10534000D7FF431C02D12B6803B1236038BD00BFD7
:10535000B475002038B5064D0023044608462B607E
:10536000FEF7CCFF431C02D12B6803B1236038BD8C
:10537000B475002038B5074D044608461146002292
:105380002A601A46FEF7BCFF431C02D12B6803B10A
:10539000236038BDB47500200148FFF755BB00BF3E
:1053A000AC7500200148FFF750BB00BFAC75002072
:1053B00038B5074D04460846114600222A601A46B1
:1053C000FEF756FF431C02D12B6803B1236038BDA2
:1053D000B4750020F8B500BFF8BC08BC9E46704705
:0C53E000F8B500BFF8BC08BC9E46704742
:1053EC0001808080808080800480808080808080AC
:1053FC004080808080808080088080808080808059
:10540C001080808080808080200000000004400894
:10541C0010200000020440081020000001000200CF
:10542C000400060008000A000C00100020004000D8
:10543C00800000017F74847B61A05F7B67A9797B0E
:10544C007386717B70D3677B64BD4F7B7D79767B74
:10545C0074B05F7B7DA75A7B6B7D887B97667A7B6C
:10546C00A262777B657C8D7BB167727BB959607B5F
:10547C005E808A7BA874657BB6755F7B7E8D7D7B39
:10548C006F866A7B7F6D8B7B6C64717BC8D9B77BB5
:10549C00472C477B817D807B878A857B7265747BFB
:1054AC00987D7C7B00253D7B727D7B7B6B83687B51
:1054BC00E4FFA87B809E627B7D76887B724E767B38
:1054CC007F6C967B90745B7B77739E7B7C719A7BF5
:1054DC0078736E7B7E81BC7B7A78BF7B868B627B9C
:1054EC007C6E6F7B7F616E7B7B7B7B7B7B7B7B7B3B
:1054FC007B7B7B7B7B7B7B7B7B7B7B7B7B7B7B7BF0
:10550C007B7B7B7B7B7B7B7B7B7B7B7B7B7B7B7BDF
:10551C007B7B7B7B7B7B7B7B7B7B7B7B7B7B7B7BCF
:10552C007B7B7B7B7B7B7B7B7B7B7B7B7B7B7B7BBF
:10553C007B7B7B7B7B7B7B7B7B7B7B7B7B7B7B7BAF
:10554C007B7B7B7B7B7B7B7B7B7B7B7B7B7B7B7B9F
:10555C007B7B7B7BD2470000664300000C4F000036
:10556C0076460000A03E0000000000000000000095
:10557C00000000006353BE8F8C9696966E6775BBC9
:10558C0097969696C9C58C87739696967D8DFF9B3C
:10559C00CF9696966D85000ED1969696A1ABBCA231
:1055AC0093969696BEB99F9AAE969696999A99FFAF
:1055BC00B2969696978A8B8E6F969696900C000064
:1055CC000C0F0000B90B0000C7070000140200000C
:1055DC000000000000000000000000006F5B5E4750
:1055EC00657E7E7E8C86793B9D7E7E7E837F80FF72
:1055FC00777E7E7E8186008A7A7E7E7E7E007B7BB5
:10560C007F7E7E7E7E7E7E7E7E7E7E7E797B595AFE
:10561C00937E7E7E807DFC777C7E7E7E7E7E7E7E13
:10562C007E7E7E7E757DDF80887E7E7E6776796A63
:10563C00C37E7E7E7E7E7E7E7E7E7E7E77715F5298
:10564C008D7E7E7EEC617878797E7E7E8A7E7C7D16
:10565C00C77E7E7EDCA7A361397E7E7EA61000000D
:10566C005506000070F7FFFFDC0B0000BA150000B8
:10567C00000000000C0B000088F4FFFF000000008D
:10568C002DF7FFFF8B06000000000000B20C00009D
:10569C0079010000F8FFFFFFB4F5FFFF222D878B87
:1056AC009977D05E775ED277B37578AEFF3EA593CF
:1056BC00B4776017776A0077FF536FA0B4779D9328
:1056CC00D877353977670077255DF58900D5A3A1A3
:1056DC004777001C7749FF777B71B77200FFD0E9E1
:1056EC004077E00077186777FFF9FF21FFBCB4A182
:1056FC001777FF1C775900773FD3B12EFF6CA9AFFA
:10570C0039774731774B49775462BF001138B2C7AC
:10571C000077BA187731C67700ECE3004A299699DE
:10572C0015779C4F7766DF77CEE4882262FFFFFF08
:10573C00D1170000380100001A010000EF340000FE
:10574C00000000000D0D0000470C000000000000E0
:10575C00EB2500002B1E00000000000028100000AC
:10576C006D080000BAFBFFFFAC1800008F97FF70AC
:10577C007E848784849E8F8485638E7888877D82DF
:10578C001A847362847D868483BE3E968D888B8C4E
:10579C000B84837A848977847D897B728D8764CF2F
:1057AC008F84804484318984868487438484848470
:1057BC00848484848484848484848484817C9173AC
:1057CC0071848B7F847043848DA8797A8E8A9680BD
:1057DC00E2848B7584739784848EAD95778278750B
:1057EC003B84808A848A758486A1B77C827FA234AC
:1057FC008B8485DD84BB878487778584775B9C8CE1
:10580C009B847089849328847D8D787380889477A9
:10581C0098847E6A844F868485A32F3B7788903B3F
:10582C008F849534848664848E92477C838C986CA8
:10583C007684769C848C848488D4FE6180A4927A4D
:10584C0080847E7C849141848C7985859078819844
:10585C00998481C38458988476C56C24787F729718
:10586C004D848A7F8455788483226F917A008C7F53
:10587C0078847991847F81847C7C7D828283787C1E
:10588C00A984898484888B847C0E49A48787AB6D1A
:10589C009B847F5A84819184909D7965FF5E7F5AA9
:1058AC008B841A938484738400829784958560A674
:1058BC007984908B84DDF0849C76918688848F919A
:1058CC00C884898884748584867AF17F8689A34903
:1058DC0072848FD184FC73848275A1B57A8485001F
:1058EC007F847BB984AF7E849762706A80CB84801E
:1058FC0080848B8B848191848180817EFF9C8769DD
:10590C008A84ED7D848F9B84FF8786737F857F815E
:10591C008B84B487848389845A837E87887F978B12
:10592C008D845D73847C9A84518E858580876E8D81
:10593C00008473708494678480B2616E806E8D6F06
:10594C007F84A57384719684799573708178768041
:10595C00F484887E847090848638FF5E86B17BA642
:10596C007C849185849E6E84648E8A8FE1FEFFFF19
:10597C00DE140000071A00003513000000000000C0
:10598C00F511000037F7FFFFBD0E000058000000B6
:10599C00A5100000FF13000005130000ECF3FFFF3F
:1059AC00500C00004A040000632300001D1300008B
:1059BC00D30E00009B0200002B19000081EAFFFFB0
:1059CC0029F6FFFFB4F8FFFF0A0E00009EFFFFFF51
:1059DC0081E3FFFF1F080000DF0A0000271A000008
:1059EC004A0C0000EFFAFFFFC901000080797884AF
:1059FC007E83707D797D78857C6D7D7583769981CC
:105A0C00878D7C7B7D7E827F807F7D7E7968A8BB45
:105A1C007E99977D797C62708577898F78859A7D60
:105A2C007D41826D857D9E8B617481818B7968B49B
:105A3C007E6A7C88717B666A858070927A92507FD0
:105A4C00784F85718B81636851938A839373AF69A7
:105A5C007E9C5E835C73739C8DC0728A79999779F6
:105A6C009F5595726B79A49B745D7E7140467465ED
:105A7C007ED5655F915D75B068D3AF5A6152146481
:105A8C00C27D53BB8F60E9C29C356B0759C1355D34
:105A9C007E3BD96D605D7C4361A4AC556A677F5FCA
:105AAC004ECA5DA096681D268FFE66DE905A8B84CA
:105ABC007E5F7F996986928F8969819083A43C82ED
:105ACC0069728C738A855B646EA986896072356491
