:020000040800F2
:1000000000000220E542000835430008354300089F
:100010003543000835430008354300080000000060
:10002000000000000000000000000000E1410008A6
:100030003543000800000000E5410008E9410008E0
:1000400035430008354300083543000835430008B0
:1000500035430008354300083543000835430008A0
:100060003543000835430008354300083543000890
:100070003543000835430008354300083543000880
:100080003543000835430008354300083543000870
:100090003543000835430008354300083543000860
:1000A0003543000835430008354300083543000850
:1000B0003543000835430008354300083543000840
:1000C0003543000835430008354300083543000830
:1000D0003543000835430008354300083543000820
:1000E0003543000835430008000000003543000890
:1000F0003543000835430008354300083543000800
:1001000035430008354300083543000835430008EF
:1001100035430008354300083543000835430008DF
:1001200035430008354300083543000835430008CF
:1001300035430008354300083543000835430008BF
:1001400000000000000000000000000000000000AF
:10015000354300083543000835430008354300089F
:10016000354300083543000835430008354300088F
:1001700035430008354300083543000800000000FF
:10018000354300083543000835430008354300086F
:10019000354300083543000835430008354300085F
:1001A000354300083543000835430008354300084F
:1001B000354300083543000835430008354300083F
:1001C000354300083543000835430008354300082F
:1001D000354300083543000835430008354300081F
:1001E000354300083543000835430008354300080F
:1001F00035430008354300083543000835430008FF
:1002000035430008354300083543000835430008EE
:1002100035430008354300083543000835430008DE
:10022000354300083543000835430008000000004E
:10023000354300083543000800000000354300083E
:1002400035430008354300083543000835430008AE
:10025000354300083543000835430008354300089E
:10026000354300083543000835430008354300088E
:1002700035430008354300083543000800000000FE
:10028000354300080000000035430008000000006E
:080290000000000035430008E6
:1002A00010B5054C237833B9044B13B10448AFF3B0
:1002B00000800123237010BD80000020000000009A
:1002C0005053000808B5034B1BB103490348AFF373
:1002D000008008BD0000000084000020505300088A
:1002E00001F0FF01102A2BDB10F0070F08D010F8E7
:1002F000013B013A8B422DD010F0070F42B3F6D1EB
:10030000F0B441EA012141EA014122F007047FF003
:1003100000070023F0E80256083C85EA010586EA5A
:10032000010685FA47F5A3FA87F586FA47F6A5FA96
:1003300087F68EB9EED1F0BC01F0FF0102F00702A2
:1003400032B110F8013B013A83EA010313B1F8D14D
:100350000020704701387047002D06BF354603382E
:10036000073815F0010F07D1013015F4807F02BF67
:10037000013015F4C03F0130F0BC0138704700BFB8
:1003800053B94AB9002908BF00281CBF4FF0FF31FC
:100390004FF0FF3000F06EB9ADF1080C6DE904CEFE
:1003A00000F006F8DDF804E0DDE9022304B0704750
:1003B0002DE9F047089D04468C46002B40F08380D1
:1003C0008A42174647D9B2FA82F242B1C2F12000FE
:1003D00024FA00F09140974040EA010C94404FEA23
:1003E0001748230CBCFBF8F61FFA87FE08FB16C162
:1003F00043EA014306FB0EF1994209D9FB1806F1C5
:10040000FF3080F01981994240F21681023E3B4450
:100410005B1AA4B2B3FBF8F008FB103344EA0344C0
:1004200000FB0EFEA64509D93C1900F1FF3380F010
:100430000581A64540F2028102383C4440EA06406C
:10044000A4EB0E0400261DB1D4400023C5E90043EF
:100450003146BDE8F08702B9FFDEB2FA82F2002A27
:1004600050D1CB1B4FEA174E1FFA87F80126B3FB7A
:10047000FEFC210C0EFB1C3341EA034108FB0CF38C
:100480008B4207D979180CF1FF3002D28B4200F26F
:10049000E9808446C91AA3B2B1FBFEF00EFB10112D
:1004A00043EA014408FB00F8A04507D93C1900F1D4
:1004B000FF3302D2A04500F2D9801846A4EB08040D
:1004C00040EA0C40BFE78B4209D9002D00F0B18013
:1004D0000026C5E9000130463146BDE8F087B3FA91
:1004E00083F6002E4AD18B4202D3824200F2B880BA
:1004F000841A61EB030101208C46002DA8D0C5E9C8
:10050000004CA5E7C2F1200320FA03F6974001FA58
:1005100002F04FEA174ED9403043030CB1FBFEF610
:100520001FFA87F80EFB161143EA014306FB08F198
:10053000994204FA02F409D9FB1806F1FF3C80F055
:100540008D80994240F28A80023E3B445B1A81B220
:10055000B3FBFEF00EFB103341EA034100FB08F34E
:100560008B4207D9791800F1FF3C73D28B4271D9C5
:1005700002383944CB1A40EA064678E7C6F1200C27
:1005800003FA06F422FA0CF31C4320FA0CF701FAE2
:1005900006F34FEA144E21FA0CF11F433B0CB1FB5A
:1005A000FEF91FFA84F80EFB191143EA014109FB19
:1005B00008FA8A4502FA06F200FA06F308D9611829
:1005C00009F1FF3048D28A4546D9A9F102092144F0
:1005D000A1EB0A01BFB2B1FBFEF00EFB101147EA1E
:1005E000014700FB08F8B84507D9E71900F1FF31CA
:1005F0002ED2B8452CD90238274440EA0940A7EB4F
:100600000807A0FB02894F45C64649461AD317D0B2
:100610005DB1B3EB0E0267EB010707FA0CFCF24089
:100620004CEA0202F740C5E9002700263146BDE842
:10063000F0872E4628460BE70646E9E61846FDE613
:100640004345E5D2B8EB020E69EB04010138DFE760
:100650000846D2E760468DE78146B9E7664675E70A
:1006600030464AE7ACF1020C394413E702383C4407
:1006700024E700BF704700BF2DE9F04F2DED048B3C
:10068000A3B0934602F00302884618939DF8C03049
:10069000BDF8D44009EE103A9DF8C430179404F028
:1006A000010408EE103A9DF8C830BDF8D81019932F
:1006B000BDF8D03008901A939DF8DC309DF8E40026
:1006C0000F939DF8E03010911D939DF8E830149041
:1006D0001E93BDF8EC300B93BDF8F830119352EA3D
:1006E000040340F07883002800F06F8301FB01F2DF
:1006F0001C461B9311FB01F341420BFB02F213FB5F
:100700000BF34FEA4B0989B2CDF830B09BB2C34628
:1007100015913F991693234601EB82028A46129265
:10072000119A002A56D00B9A1099BDF9540003FB78
:1007300002130F9A13900021149852420E911B1A23
:100740000A9393B20D930B46139A0A98824230DAB9
:100750000B991546109817460F9A03FB0103BDF934
:1007600034809E1AB0451EDA07FB0BF3444609930A
:100770004346002D4A464FF0000150460BDB9B4597
:10078000CCBF4FF0000C4FF0010C5CEAD47C02D1DE
:10079000BB4500F3888203F007FE0134CA4424B24B
:1007A000B4422346E5DB01350A9B2DB29D422F461C
:1007B000D8DB129B534500F0B5820E9A0D9B0B9926
:1007C00001320B4412B211999BB20E928A420D93E0
:1007D0001346B9DB1B9A159B0B9901320B4412B2DD
:1007E00014999BB21B928A421593134698DBD84604
:1007F000DDF830B01C9211981E9B1C9AC31A9A42C5
:100800001F9380F23B81109C4FEA4B091D9A0BFB12
:1008100004F11B9B821A0B9809EE901A13FB00F34C
:100820000846159214FB04F2400001FB04F112FB90
:100830000BF20D90149892B21B1A3F981D9200EB88
:1008400081019BB212911E930F9B002B00F0B78287
:100850001C9A002510990B9B0E9502FB0313BDF902
:1008600078100F9A1691149952425B1A0A9393B218
:100870001393169B0A998B423BDA0B9A1E461099EA
:100880001F460F9B05FB0215BDF94C20ED1A0C927B
:100890000C9BAB4227DAF0EE488A08FB07F71C46B0
:1008A000099607E0013403F07FFDCA4424B2AC424C
:1008B000234617DA002C4A464FF000015046F1DB80
:1008C0009845EFDD0134F818089E5B4624B2524685
:1008D00018EE901A0BFB006000F0FAFEAC42CA441E
:1008E0002346E7DB099E01360A9B36B29E42374615
:1008F000CEDB129B534500F04782139B0B990E9A57
:100900000B4401329BB212B213930F9B15460E9209
:100910009A42AEDB159B9D423BDA0B9B1C9A1099C9
:10092000BDF9787002FB0316149BCDF84C9019EEBC
:10093000909AF61A0C970C9BB3421CDA0B9A1C4641
:10094000184618EE101A05FB02F5149F0A950A9B2B
:1009500001340D9D524600FB083024B2AA44089D84
:10096000C01B4B4609910BFB005000F0B1FEB44296
:1009700020460999EBDB129B534500F0EC810E9B5E
:10098000159A01331BB293421D460E93D3DBDDF85B
:100990004C90119B9D4263DA0B9A1C990E9B109808
:1009A00013FB02F301FB0202BDF9781016910F99B7
:1009B0005B1A14999BB2521A13930A920A9B194616
:1009C000169B99423BDD0B9A1E4610991F460F9BC2
:1009D00005FB0215BDF94C20ED1A0C920C9B9D42B3
:1009E00027DDF0EE488A07FB08F71C46099607E06A
:1009F000013403F0D9FCCA4424B2AC42234617DACE
:100A0000002C4A464FF000015046F1DB9845EFDDDF
:100A10000134F818089E5B4624B2524618EE901A2C
:100A20000BFB006000F054FEAC42CA442346E7DBF7
:100A3000099E01360A9B36B29E423746CEDB129B98
:100A4000534500F05681139B0B990E9A0B440132CB
:100A50009BB212B21393119B15460E929A42ADDBD4
:100A60001E9B0B991B9A0B4401329BB212B21E9330
:100A70001F9B1B929A421C92FFF6E6AE119B1C9C98
:100A8000A34240F385800F9A4FEA4B09109B5042D6
:100A90000B9D13FB03F203FB03F180B21B9B12FBC4
:100AA0000BF20BFB01F113FB05F31C90149892B2AF
:100AB000CDF830B0C3461B1A3F9816929BB200EB9C
:100AC00081011593234612910B9A109903FB02138F
:100AD000BDF95410002213911C990E920D91149996
:100AE0005B1A0A931346139A0A98824230DA0B99DA
:100AF0001546109817460F9A03FB0103BDF9348081
:100B00009E1A46451EDD07FB0BF3444609934346F8
:100B1000002D4A464FF0000150460BDB9B45CCBFF1
:100B20004FF0000C4FF0010C5CEAD47C02D1BB45C5
:100B300000F3AC8003F038FC0134CA4424B2B44260
:100B40002346E5DB01350A9B2DB29D422F46D8DBBB
:100B5000129B534500F0B4800E9A0D9B0B99013205
:100B60000B4412B211999BB20E928A420D93134616
:100B7000B9DB1B9A159B0B9901320B4412B21199E8
:100B80009BB21B928A42159313469DDBDDF830B071
:100B90003F9B534574D019EE103A1BB2ADF8843028
:100BA000ADF88630179B2199002B69D0109B3C9A99
:100BB00003FB0BFC3D9813FB03FE141F03FB0CFC13
:100BC000179A1EFB0BFE3F9BCCF38F0C02440EF0DA
:100BD000030E189D0CF1FF3B90460EF1FF39CDF846
:100BE00020C01FFA8BFB1FFA89F90BF1010B09F1E9
:100BF00001094FEA8B0A03EBCB0B089A54F8043F28
:100C0000002A00F0DF803F9A05EB0A0602F1080097
:100C100055F8042B4FEA32273FFA87F73FFA82F262
:100C2000D2FA01FCD7FA01F250F8087C2CFB073706
:100C300050F8043C22FB0373AE4200F10800E7D1F8
:100C40005A46BEF1000F00F0B88006EB090516F811
:100C5000010B32F8027BB54217FB0033F7D1339A10
:100C6000164683FB06021A9B42FA03F3199A1344B1
:100C70003D9A83F3080302F8013B90453D92BCD1B5
:100C8000002023B0BDEC048BBDE8F08F099A18EE6C
:100C9000101A089802EB030E0C9B524603FB0E0041
:100CA00000F016FD48E7099A18EE101A089802EBB2
:100CB000030E0C9B524603FB0E0000F009FD6CE591
:100CC0001A9C16990294339C3D9B3C9A1798019468
:100CD000199C04913F99069318EE103A059219EE6B
:100CE000102A03908A461898009400F081FA3D90EB
:100CF00032E71A9C1D990294339C3D9B3C9A1798AD
:100D00000194199C04913F99069318EE103A0592AC
:100D100019EE102A03908A461898009400F068FA99
:100D20003D9090E61A9C16990294339C3D9B3C9A08
:100D300017980194199C04913F99069318EE103A64
:100D4000059219EE102A03908A461898009400F034
:100D50004FFA3D9031E51A9C1D990294339C3D9BBE
:100D60003C9A17980194199C04913F99069318EEA8
:100D7000103A059219EE102A03908A4618980094AA
:100D800000F036FA3D90FAE51A9C1D990294339CC6
:100D90003D9B3C9A17980194199C04913F990693A6
:100DA00018EE103A059219EE102A03908A46189808
:100DB000009400F01DFA3D909FE535464FE71D4633
:100DC0000E93A7E52E463F9A3BE7149BDDF8FCA067
:100DD0001C931B930FE56FF0020052E72DE9F04FD3
:100DE000ABB0934608939DF8D8309DF8D4500F933C
:100DF000BDF8E0302AB29DF8D0401093BDF8E8303D
:100E00000A9518939DF8EC30BDF8E4501B939DF8BB
:100E1000F430AB45129424B22493BDF8FC30ADF805
:100E2000A0401493BDF80831ADF8A240ADF8A4205D
:100E3000ADF8A620119020911993DDE9289840F093
:100E4000D181002B00F0BD8118994FEA9B04249AB0
:100E50004FEA4B070B4617945642621E03FB01F301
:100E6000A40011FB01F192B21E94C3F34F0001F0F4
:100E7000010400230D9001380E941D46409C80B261
:100E8000CDF88480D84604EB021401320497203454
:100E90000C94409C04EB021492001F941D9200FBE2
:100EA00007721C928AB222920BF00302CB46279261
:100EB000B2B223921B9A52422692149A9BB218996C
:100EC000C246259302FB0515249B0022EB1A1592BE
:100ED0000B931346BDF98C201A92BDF89C201692F4
:100EE000BDF8982013921A9F0B98874236DA14990E
:100EF0003D4618981B9A01FB0303BDF94C10CDF831
:100F000004B0DDF80C919E1A8B46DDF88080B34565
:100F10001CDA08FB07F35C46DC460093002D5246C2
:100F20004FF00001484609DBE045CCBF0023012318
:100F300053EAD47302D1B84500F3478103F034FA81
:100F40000134D14424B2B442A446E7DB01350B9B03
:100F50002DB29D422F46DADBDDF804B0179B002B43
:100F600000F03C81409BDDF884801033CDF80CA06C
:100F70000593419B043309931C9B0793002306931D
:100F8000059B069953F8102C53F808AC0092439A2D
:100F900053F8049C8D1853F80C2C0D9B0192089A61
:100FA0008E18002B5AD00293D5F800E02A460398F9
:100FB000D6F800C0115837581FFA8EF08B4A8B4B69
:100FC00040EA0140049C0A403B401FFA8CF1254452
:100FD000264442EA1E4243EA1C4341EA07413FFAE3
:100FE00081F73FFA80FCD7FA0BF7DCFA08FC009C8B
:100FF00027FB0C444FEA312100943FFA81F14FEA7C
:1010000030203FFA80F0D1FA0BF1D0FA08F0019CC1
:1010100021FB004101913FFA83F13FFA82F0D1FABE
:101020000BF1D0FA08F021FB00AA4FEA33233FFA74
:1010300083F34FEA32223FFA82F2D3FA0BF3D2FA69
:1010400008F223FB0299029B5C1EA3B20293002BC1
:10105000AAD1439A079BD518089AD6180E9B2BB392
:1010600033682A68129FDCB20A99D5B2C2F307200E
:10107000E41B6D1AC3F30726401A0099C3F3074E09
:10108000F61B05FB04140A9DC7EB1363AEEB0701C7
:101090000094C2F30744C5EB1262641B019D02FB7E
:1010A000039900FB065004FB01AA0190009B379AAC
:1010B0001946104681FB0032019B379918460C46B1
:1010C00080FB04318AFB0430254689FB0543109CD4
:1010D0000F9E2241214120412341099C314481F34B
:1010E000080104F8031C334406993244059F304438
:1010F000043183F3080304F8013C231D10370691E3
:10110000099307990C9B043105979F4282F30802CB
:1011100080F3080004F8042C04F8020C07917FF413
:101120002FAF419B1D9ADDF80CA01344DDE91E7E14
:101130004193169B4BB3FB18DDF804C1DDF88880A2
:101140001FFA83F9439A7B1C5EF8041BD519089A91
:10115000D6199FB2B8F1000F0AD043460022013BD6
:10116000B45CA85C52449BB204FB0011002BF6D186
:10117000B94581F308010CF8011BE3D1169B419A94
:10118000013B9BB201331A444192159ADDE91331B8
:1011900001320B44199912B29BB28A4215921393F1
:1011A0001346FFF6A0AE239AD0461499259B0A4415
:1011B000013392B21BB22392199A1D469342FFF655
:1011C0007CAE00202BB0BDE8F08F009B03EB0C0140
:1011D000119B0AFB013103F0D9F8B1E6179FDDF846
:1011E00000E1A6E76FF00200ECE700BF0000FFFFA0
:1011F0002DE9F04F99B013B206469DF88850BDF81E
:1012000094400A95BDF8905028980B95BDF89850D9
:101210002044ADF85C30ADF85E30DDF85CB014947D
:101220000595002C00F0E98023468C462C46AF083B
:10123000013B05F003050C9719460D9515930CEB32
:10124000440321F001016C1E95B20993A2B27B1EEA
:101250001295851C084428999BB2CDF83CC00231F8
:10126000069501330791511C099A1391011D0E91A6
:10127000990008912799049102EBC3010CEBC30379
:1012800011911093059BF518049B1F685C680C9BDB
:101290000395002B00F0B6800F9BBC46AE4601962E
:1012A00003F10809099B03F10808089B06EB030AF0
:1012B0002346CDF808A0019A52F8041B4FEA3125C5
:1012C00001923FFA85F53FFA81F15EF8042B4FEA6F
:1012D00032203FFA80F03FFA82F2D1FA0BF1D5FAD0
:1012E0000BF5D2FA0BF2D0FA0BF059F8086C21FB8F
:1012F000067A58F8087C21FB07CC22FB064422FB27
:10130000073259F8041C25FB01A758F8043C25FBBB
:1013100003CC20FB014420FB0323DDE9011209F18A
:10132000080908F108088A42C5D192460899039A2B
:10133000DDE910E80A4403920D9A002A60D0139A5E
:10134000CDF804B00AEB0206DDF80CB0DDF84890E9
:101350001AF8011B1BF8012BA1EB09013EF9025BF6
:1013600038F9020BA2EB0902564501FB057701FB98
:1013700000CC05FB024400FB0233E9D1DDF804B0E8
:10138000239A104687FB002105468CFB05202F463B
:1013900084FB072583FB07420B9B079C19411D41DA
:1013A00018411A410A9B19441D4418441A44069BCB
:1013B00082F3080281F3080185F3080504F8021C92
:1013C000023304F8015C03F8032CA21C80F308002C
:1013D0000792049A03F8040C0832059806930492C5
:1013E00006440E9A93427FF44DAF159B23F0010003
:1013F000149B02301844289B184419B0BDE8F08FA4
:101400005646BDE7B246DDF83CE0DDF824802346D1
:10141000BC4691E72DE9F04F91B016460F469DF876
:1014200068400B9325B2A1460D945C08ADF83C5082
:101430001346ADF83E509DF8705001920495BDF8EA
:101440007850219A9DF86C10DDF83C80059500F0ED
:101450003FF9002C00F0A080B30806F003021F9DA6
:10146000013C0793013B0692013A9BB2083592B2C8
:101470001F990133A0B20132103100951FFA89FB88
:101480000A929A00209D01EBC0010392219A023535
:101490000C9002EBC303029508910993009A0199FD
:1014A00052F8083C07EB010A52F8041C079A002A7C
:1014B00000F0C580219AD14602F1080C039A07EB8F
:1014C000020E57F8042B4FEA32263FFA86F63FFA0F
:1014D00082F259F8044B4FEA34253FFA85F53FFA7A
:1014E00084F4D2FA08F2D4FA08F45CF8080C20FB71
:1014F000023320FB0410D6FA08F6D5FA08F55CF89A
:10150000041C21FB063321FB050177450CF1080C77
:10151000D7D1039A099D9244069A002A00F08D8043
:101520000A9A0EEB02071EF8010B1AF8012B35F987
:10153000024BA0EB0B00A2EB0B02774514FB003330
:1015400014FB0211EFD11D9A144683FB040281FBA8
:101550000403059901980A410B4107440498009936
:10156000024403440298083183F3080300F8013C65
:10157000831C82F308020293089B0091994200F8B1
:10158000022C8BD10C9C1F9B013403EBC4031F93D3
:10159000209B03EB440320930B9BDB0749D5019A67
:1015A0001F9B92081B684DD0561E219AB6B202F1BD
:1015B0000804013607EB860557F8042B4FEA322161
:1015C0003FFA81F13FFA82F2D2FA08F2D1FA08F139
:1015D00054F8080C20FB023354F8042C22FB01338E
:1015E000BD4204F10804E7D1219A02EBC602219220
:1015F000019A12F003020FD0013ABDF83400219C89
:1016000092B201322A4415F8011B34F8026B091A10
:10161000AA4216FB0133F6D11D9A104683FB001235
:10162000059B42FA03F3049A1344209A83F30803B8
:101630001370002011B0BDE8F08F774683E7BE46F7
:10164000219D69E73D46D3E72DE9F0470CB282B012
:101650005FEA9308ADF80440ADF80640DDF804C039
:1016600031D002F1080600EB8807DFF860E050F89F
:10167000044B4FEA34253FFA85F53FFA84F419B15B
:10168000D5FA0CF5D4FA0CF41FFA84FA05EA0E091F
:10169000B8424AEA054549EA144446E9025406F1CB
:1016A0000806E4D102EBC80213F0030308D089B2A4
:1016B0003B4417F8010B401A9F4222F8020BF8D165
:1016C00002B0BDE8F0870746EEE700BF0000FFFF6D
:1016D000F0B50CB283B09F08ADF80440ADF80640F9
:1016E00019BBE7B302F1080500EB870650F8044B7D
:1016F0004FEA342C3FFA8CFC3FFA84F4B04245E9BF
:10170000024C05F10805F1D102EBC70213F0030307
:1017100009D089B202EB430316F8010B401A22F8F4
:10172000020B9A42F8D103B0F0BDC7B1DDF804E076
:1017300002F1080C00EB870650F8044B4FEA342501
:101740003FFA85F53FFA84F4D5FA0EF5D4FA0EF493
:10175000B0424CE902450CF1080CEDD1D4E7064645
:10176000D4E700BF5FEA920C2DE9F0413ED00CF1C6
:10177000FF3C00F108041E4F1FFA8CFC0CF1010C19
:1017800001EB8C0651F8045B4FEA35233FFA83F3F3
:101790003FFA85FE1FFA8EF854F8085C48EA0348C1
:1017A00098FA15F53B4044F8085C54F8045C43EAA9
:1017B0001E4393FA15F3B14244F8043C04F10804C3
:1017C000E0D100EBCC0012F003020DD0013A93B24D
:1017D000013300EB430330F8021B16F8012B98424B
:1017E0000A4420F8022CF6D1BDE8F0810E46EAE763
:1017F0000000FFFF2DE9F04F2DED028B8DB0154657
:101800000693BDF86030DDF86C800293BDF864305B
:1018100001900793BDF8683004910593002963D0C7
:10182000002308EB420B9A460993059B002B53D0EB
:10183000049A0AFB02F34FF0000AD1180393019BAC
:10184000524605FB013308930799039B029E9F189C
:1018500001FB02F2019C911B05FB074700F1B580DB
:101860009818801B05FB0040069B049C1944A1426C
:1018700080F2A880039901EB0209029AA9EB020900
:101880009944019B05FB093944192B464246002126
:10189000FFF7DAFEA14540F29A80022621462C4449
:1018A00040462A46FFF75EFF731CA14530469EB2B4
:1018B000F4D84DB1013F414631F9023B93FBF0F3BF
:1018C0008B4507F8013FF7D10AF1010A059B0FFA92
:1018D0008AFA9A455246B7DB099A013213B2049A42
:1018E00093429A460993A0DB059A002A65D0049C8E
:1018F00002FB05F1A8F102000026234608EE101AAB
:1019000012FB05F989B2019A03FB04F304FB05FA03
:101910001FFA89F905FB032300EB41020A900B93A0
:1019200093463346099108950799059A02FB03F2FD
:1019300001FB03F3089901FB02F20392029A9B1A3E
:1019400049D4049A02FB03F0019A01FB0020069A95
:101950001344049A93423CDA02FB03F30199089A78
:1019600002FB031700EB0A0418EE103A424600216E
:10197000FFF76AFEA74230D902252146544440466B
:101980004A46FFF7EFFE6B1CA74228469DB2F4D8EB
:10199000099B63B1039B0A9A591E1C9B194432F997
:1019A000023F93FBF0F35A4501F8013FF7D10136AE
:1019B000059A36B296423346B6DB0DB0BDEC028BCB
:1019C000BDE8F08FDDF820905EE738464CE7012057
:1019D0006FE70B9FC6E70198B9E70120D8E700BF82
:1019E00038B50D4D4FF47A730C4A044629781268C5
:1019F000B3FBF1F3B2FBF3F000F094F808B90F2C4D
:101A000001D9012038BD002221464FF0FF3000F0FF
:101A10004FF800206C6038BD00000020140000204A
:101A2000032010B500F030F80020FFF7D9FF10B107
:101A30000124204610BD044602F06CFB204610BD78
:101A4000034A044B11681B780B441360704700BFB6
:101A50009C00002000000020014B1868704700BF68
:101A60009C00002038B50446FFF7F6FF0546631CCE
:101A700002D0044B1B781C44FFF7EEFF431BA3422C
:101A8000FAD338BD0000002007490002074BCA689E
:101A900000F4E06010B44FF6FF0422405DF8044B00
:101AA00010430343CB60704700ED00E00000FA05EF
:101AB000194BDB68C3F3022330B4C3F107051C1DC7
:101AC000042D28BF0425062C19D9033B4FF0FF3401
:101AD0009C4022EA04024FF0FF34002804FA05F487
:101AE00021EA040101FA03F141EA02010ADB0901DA
:101AF0000A4BC9B2034483F8001330BC704700227C
:101B00001346E8E700F00F000901054BC9B2034492
:101B1000197630BC704700BF00ED00E000E100E046
:101B2000FCEC00E00138B0F1807F0DD2074B0022C1
:101B3000072130B4F025064C5860104684F8235035
:101B40009A60196030BC70470120704710E000E0D7
:101B500000ED00E02DE9F04F002383B0DFF83C8278
:101B60000D68DFF83CE203E00133102B00F0C08089
:101B700001229A4032EA050402EA050CF4D14C68CD
:101B800024F01007022F40F0B680DF0803F0070AA8
:101B90004FF00F0B0E6900EB87074FEA8A0AD7F860
:101BA00020900BFA0AFB06FA0AF64FEA430A29EAE2
:101BB0000B094FF0030B46EA09090BFA0AF604EA8F
:101BC0000B0BC7F820906FEA060907680BFA0AFBAF
:101BD00027EA06064BEA060606608768C4F3001685
:101BE00007EA090BCF689E4007FA0AF747EA0B0796
:101BF0008760476827EA020216434660C668E70026
:101C00008A6806EA090902FA0AF242EA0902C2608F
:101C1000AAD5D8F8F47023F0030903F003020F26C5
:101C200047F0020709F1B0499200C8F8F47009F5CD
:101C30008069D8F8F47006FA02FA07F002070197F3
:101C40004D4F019EB842D9F8086026EA0A0620D016
:101C500007F58067B84266D0484FB84268D0484F11
:101C6000B8426AD0474FB8426CD0474FB84273D0A1
:101C7000464FB84275D0464FB84268D0454FB8423B
:101C800074D0454FB8420CBF09270A2707FA02F261
:101C90001643C9F808606FEA0C07DEF80020E60377
:101CA00003F1010354BF3A404CEA0202CEF800208F
:101CB000A203DEF804604FF0B04254BF3E404CEA4D
:101CC0000606CEF804601668E2024FF0B04254BF38
:101CD0003E404CEA0606A4024FF0B044166052683B
:101CE00054BF3A404CEA0202102B62607FF440AFCE
:101CF00003B0BDE8F08F4FEA430A4FF00309D0F874
:101D000000B0013F04EA090609FA0AF9012F2BEA9B
:101D1000090B06FA0AF66FEA090946EA0B0606609D
:101D20003FF66CAF59E7012707FA02F21643B0E716
:101D3000022707FA02F21643ABE7032707FA02F27B
:101D40001643A6E7042707FA02F21643A1E707277E
:101D500007FA02F216439CE7052707FA02F2164338
:101D600097E7062707FA02F2164392E7082707FAD1
:101D700002F216438DE700BF000002580008025827
:101D8000000C0258001002580014025800180258A3
:101D9000001C025800200258002402580044025837
:101DA00080000058F8B503680446D90730D5AE491D
:101DB0000A6902F03802102A00F0ED800A6902F088
:101DC0003802182A00F0E1806368B3F5803F00F024
:101DD0003A81002B00F07981B3F5A02FA24B1A684D
:101DE00000F0C58122F480321A601A6822F4802241
:101DF0001A60FFF731FE9C4E054605E0FFF72CFE0A
:101E0000401B642800F25F8133689B03F6D523688A
:101E1000980731D5944B1A6912F0380F00F0CA8038
:101E20001A6902F03802182A00F0C080E268002A1D
:101E300000F089818C490B680E4623F01903134387
:101E40000B60FFF709FE054605E0FFF705FE401BA6
:101E5000022800F2388133685F07F6D571684FF4C5
:101E60007C3393FAA3F3B3FA83F2236921F47C3130
:101E700093400B4373602368D90655D41D0717D5CB
:101E80006369002B00F0B180774B5A6F1E4642F019
:101E900001025A67FFF7E0FD054605E0FFF7DCFDAC
:101EA000401B022800F20F81736F9807F6D5236854
:101EB0009A0617D5A369002B00F01E816A4B1A6899
:101EC0001E4642F480521A60FFF7C6FD054605E043
:101ED000FFF7C2FD401B022800F2F58033689F0423
:101EE000F6D52368590700F1B480636AD3B15E4A1E
:101EF000116901F03801182956D0022B13681546D4
:101F000023F08073136000F03A81FFF7A5FD0446CB
:101F100005E0FFF7A1FD001B022800F2D4802B682A
:101F20009B01F6D40020F8BD4F490A6902F038023F
:101F3000082A72D00A6902F03802182A68D0E369C8
:101F4000002B00F0EC80484B1A681E4642F08002DD
:101F50001A60FFF781FD054605E0FFF77DFD401B98
:101F6000022800F2B0803368DB05F6D571684FF0C7
:101F7000F84393FAA3F3B3FA83F2236A21F0F8410A
:101F800093400B437360236878E78A6A02F0030288
:101F9000022A7FF419AF344A126892037FF538AFF2
:101FA0006268002A7FF434AF0120F8BD9B6A99076C
:101FB0007FF43CAF2C4BE1681B685A0701D5002920
:101FC000F2D0294A1368164623F019030B43136015
:101FD000FFF742FD054604E0FFF73EFD401B0228E7
:101FE00071D833685B07F7D538E71F4B5A6F1E4629
:101FF00022F001025A67FFF72FFD054604E0FFF7C4
:102000002BFD401B02285ED8736F9907F7D44EE76B
:102010008A6A02F00302012A91D1134A1268D2059A
:1020200002D5E269802ABFD10F4D4FF0F8426868AF
:1020300092FAA2F2B2FA82F1226A20F0F8408A40C3
:1020400002436A601AE7084A136843F48033136056
:10205000CFE6064B1A681E4642F480721A60FFF7FC
:10206000FBFC054609E000BF004402580048025846
:10207000FFF7F2FC401B642825D83368DA05F7D552
:10208000A368012B00F0FC80002B00F0DF80052B03
:10209000824B1A6F00F0FA8022F001021A671A6F61
:1020A00022F004021A67FFF7D7FC7C4E41F2883712
:1020B000054604E0FFF7D0FC401BB84203D8336F5D
:1020C0009B07F7D511E70320F8BD744B1A681E462D
:1020D00022F480321A601A6822F480221A60FFF714
:1020E000BBFC054604E0FFF7B7FC401B6428EAD8B8
:1020F00033689F03F7D48AE6684B1A681E4622F4B9
:1021000080521A60FFF7A8FC054604E0FFF7A4FC24
:10211000401B0228D7D833689804F7D4E1E65F4B18
:102120001A681E4622F080021A60FFF795FC0546E9
:1021300004E0FFF791FC401B0228C4D83368DF0598
:10214000F7D423689AE6554B1A681E4622F001021E
:102150001A60FFF781FC054604E0FFF77DFC401B99
:102160000228B0D833685807F7D4236884E642F4CD
:1021700080221A601A6842F480321A6039E6FFF74A
:102180006BFC064604E0FFF767FC801B02289AD828
:102190002B689901F7D4AA6A4FF6F871404BA06AF0
:1021A0001340E26A034343EA0213AB62266BD4E9AD
:1021B0000D32013E501E013BE26BC6F308065B0286
:1021C0000004013A9BB200F4FE001206034302F041
:1021D000FE42334313432B63686B91FAA1F33149F9
:1021E000B3FA83F2A36C01402C4E93400B436B6314
:1021F000EB6A226C23F00C031343EB62EB6A626C14
:1022000023F002031343EB62EB6A43F48033EB6287
:10221000EB6A43F40033EB62EB6A43F48023EB6236
:10222000EB6A43F00103EB622B6843F080732B6091
:10223000FFF712FC044605E0FFF70EFC001B022826
:102240003FF641AF33689A01F6D56BE6134B41F286
:1022500088371A6F1E4622F001021A671A6F22F0A1
:1022600004021A67FFF7F8FB054605E0FFF7F4FBE9
:10227000401BB8423FF627AF336F9807F6D434E6D9
:10228000064A136F43F0010313670CE742F00402A0
:102290001A671A6F42F001021A6704E700440258F5
:1022A0000CFCFFFF0700FFFF4E4A136903F03803E1
:1022B000102B04D0182B0DD01BB14B4870474B4846
:1022C00070471368990647D513684948C3F3C1039B
:1022D000D8407047F0B4956A976AD46A05F0030550
:1022E000566BC7F3051704F00104012DC6F3CC06A5
:1022F00004FB06F407EE904AF8EEE77A53D0022D7D
:102300002CD0002D39D0136BB7EE006ADFED395AAF
:10231000C3F3080306EE903A334BB3FBF7F3F8EE42
:10232000E66AE7EEA56A07EE103A2E4BB8EEC77ADA
:102330001B6BC3F3462376EE867A013327EE277AAA
:1023400007EE903AF8EEE76AF0BCC7EE267AFCEEAC
:10235000E77A17EE900A704725487047136BB7EE7F
:10236000006A224AC3F30803DFED225A07EE103A4F
:10237000B2FBF7F3F8EEC76AD3E713689B0621D5E3
:102380001068B7EE006A136BC0F3C1021848C3F3BC
:102390000803DFED185AD04007EE103AB0FBF7F310
:1023A000F8EEC76ABDE7136BB7EE006A0E49C3F3D8
:1023B0000803DFED105A07EE103AB1FBF7F3F8EE21
:1023C000C76AAEE7136BB7EE006A0948C3F30803A8
:1023D000DFED085A07EE103AB0FBF7F3F8EEC76AE4
:1023E0009FE700BF0044025800093D0000127A0038
:1023F0000090D00300000039684A136803F0070317
:102400008B422DE9F0410D4604460CD2136823F0AF
:1024100007030B431360136803F007038B4202D0DA
:102420000120BDE8F0812368980706D55C49E06883
:102430008A6922F00F0202438A61D9072FD5584AD0
:10244000A168936923F470630B4393616168136817
:10245000022900F09780032900F09080012900F004
:1024600098805E07DCD54E4E41F28838336923F000
:1024700007030B433361FFF7EFFA63680746022B4C
:1024800060D0032B69D0012B05D171E0FFF7E4FA8E
:10249000C01B40457AD8336913F0380FF6D13F4A54
:1024A000136803F00703AB4209D9136823F007034D
:1024B0002B431360136803F00703AB42B0D12368CA
:1024C000580706D5364920698A6922F0700202430E
:1024D0008A61190706D532496069CA6922F070021B
:1024E0000243CA61DA0606D52D49A069CA6922F4F9
:1024F000E0620243CA619B0606D5294AE169136A74
:1025000023F070030B431362FFF7CEFE244A4FF40F
:1025100080710346926991FAA1F1B1FA81F102F456
:102520007062204C0020CA401F49A25CD3400B605F
:10253000FFF756FA0020BDE8F081FFF78DFAC01BC7
:10254000404523D8336903F03803102BF5D1A6E7B3
:10255000FFF782FAC01B404518D8336903F03803EF
:10256000182BF5D19BE7FFF777FAC01B40450DD834
:10257000336903F03803082BF5D190E79B013FF551
:1025800072AF4DE79A033FF56EAF49E70320BDE810
:10259000F081DF053FF567AF42E700BF0020005242
:1025A00000440258543109081400002008B500F016
:1025B000B1F9084B01229B6992FAA2F2B2FA82F2B7
:1025C00003F00F030449D340044ACB5CD8401060A9
:1025D00008BD00BF0044025854310908180000200B
:1025E00008B5FFF7E3FF074B1022DB6992FAA2F26E
:1025F000B2FA82F203F070030349D340CB5CD840B7
:1026000008BD00BF004402585431090808B5FFF75F
:10261000CDFF074B4FF48072DB6992FAA2F2B2FA57
:1026200082F203F4E0630349D340CB5CD84008BD99
:10263000004402585431090808B5FFF7B7FF074BAB
:1026400010221B6A92FAA2F2B2FA82F203F070032D
:102650000349D340CB5CD84008BD00BF00440258BA
:1026600054310908F0B4504FBC6AB96AFE6A04F0EC
:102670000304FB6BC1F3053C06F01006012CC3F309
:10268000CC0306FB03F607EE906AB8EEE77A48D073
:10269000022C6BD0002C53D0BB6BB7EE006ADFED81
:1026A000435AC3F3080306EE903A414BB3FBFCF3E5
:1026B000F8EEE66AE7EE256A3B4A07EE903A936B3E
:1026C000F8EEE77AC3F3462336EE867A0133F0BCA0
:1026D00067EE877A07EE103AB8EEC77AC7EE876AD8
:1026E000FCEEE66AC0ED006A936BC3F30643013368
:1026F00007EE103AB8EEC77AC7EE876AFCEEE66AD4
:10270000C0ED016A936BC3F30663013307EE103A21
:10271000B8EEC77AC7EE876AFCEEE66AC0ED026AD9
:102720007047BB6BB7EE006A2149C3F30803DFEDC6
:102730001F5A07EE903AB1FBFCF3F8EEE76AB9E7EF
:102740003B689B0621D53A68B7EE006ABB6BC2F3C3
:10275000C102184DC3F30803DFED145AD54007EE4C
:10276000903AB5FBFCF3F8EEE76AA3E7BB6BB7EE74
:10277000006A114AC3F30803DFED0C5A07EE903AE2
:10278000B2FBFCF3F8EEE76A94E7BB6BB7EE006AC6
:10279000084CC3F30803DFED055A07EE903AB4FB8B
:1027A000FCF3F8EEE76A85E70044025800000039C0
:1027B00000093D000090D00300127A00F0B4504FA1
:1027C000BC6AB96AFE6A04F003047B6CC1F3055C61
:1027D00006F48076012CC3F3CC0306FB03F607EE68
:1027E000906AB8EEE77A48D0022C6BD0002C53D018
:1027F0003B6CB7EE006ADFED435AC3F3080306EE05
:10280000903A414BB3FBFCF3F8EEE66AE7EE256A3B
:102810003B4A07EE903A136CF8EEE77AC3F346238F
:1028200036EE867A0133F0BC67EE877A07EE103A0F
:10283000B8EEC77AC7EE876AFCEEE66AC0ED006ABA
:10284000136CC3F30643013307EE103AB8EEC77AB0
:10285000C7EE876AFCEEE66AC0ED016A136CC3F34B
:102860000663013307EE103AB8EEC77AC7EE876AFF
:10287000FCEEE66AC0ED026A70473B6CB7EE006A98
:102880002149C3F30803DFED1F5A07EE903AB1FB6D
:10289000FCF3F8EEE76AB9E73B689B0621D53A6896
:1028A000B7EE006A3B6CC2F3C102184DC3F30803D4
:1028B000DFED145AD54007EE903AB5FBFCF3F8EE85
:1028C000E76AA3E73B6CB7EE006A114AC3F308035B
:1028D000DFED0C5A07EE903AB2FBFCF3F8EEE76A34
:1028E00094E73B6CB7EE006A084CC3F30803DFEDD6
:1028F000055A07EE903AB4FBFCF3F8EEE76A85E779
:10290000004402580000003900093D000090D00347
:1029100000127A0008B5FFF7C7FC084B4FF480722D
:102920009B6992FAA2F2B2FA82F203F4706304494C
:10293000D340044ACB5CD840106008BD0044025824
:1029400054310908140000202DE9F04F0446806A34
:10295000AD4F87B0A368216940EA03026669236826
:102960000A43E169D4F80CC032431E68A74D3740D2
:102970000A43A669AB4242EA07021A605A6822F487
:10298000405242EA0C025A607BD0226AB0F1005FEA
:1029900046EA020679D09D689D4A606A2A409D4DAC
:1029A0003243AB429A60DA6A22F00F0242EA000236
:1029B000DA626FD0984A93424DD0984A934200F021
:1029C000A881974A934200F0CB81964A934200F047
:1029D0008B81954A934200F0CD81944A934200F056
:1029E0001783934A934200F0EB82884A934239D18D
:1029F000904B9B6D03F00703052B36D88E4E334466
:102A000093F83450202D00F2F182012D2DD9AB1E08
:102A10001E2B2AD8DFE813F05102290049022900B1
:102A2000290029003E022900290029002900290047
:102A3000290029003C022900290029002900290039
:102A4000290029002900290029002900290029003E
:102A5000290029000C02774A526D02F00702052A6C
:102A600040F2F080B1F5004F04D00125284607B0B0
:102A7000BDE8F08F002201252846DA6007B0BDE8E6
:102A8000F08FB0F1005F40F0A582D4E90B20024343
:102A9000164380E7674A526D02F03802282AE1D8CF
:102AA000654DAD5CB1F5004F00F0D480202D00F2F3
:102AB0002581202DD9D801A252F825F0FF2B00083E
:102AC000D32B00086B2A00086B2A0008A32B0008F0
:102AD0006B2A00086B2A00086B2A00086F2B00087D
:102AE0006B2A00086B2A00086B2A00086B2A000872
:102AF0006B2A00086B2A00086B2A0008612B00086B
:102B00006B2A00086B2A00086B2A00086B2A000851
:102B10006B2A00086B2A00086B2A00086B2A000841
:102B20006B2A00086B2A00086B2A00086B2A000831
:102B30006B2A00086B2A00086B2A0008412B00084A
:102B40003D494FF400426468002501EB4000818F4D
:102B5000B2FBF1F202EB5402B2FBF4F292B28BE759
:102B600035490025646801EB4000344AEFE7314AFB
:102B7000156815F0200500F01D82166800252E4905
:102B8000C6F3C1062E4A01EB40006168F240808F17
:102B9000B2FBF0F202EB5102B2FBF1F292B2DA6058
:102BA00064E768460025FFF75DFD234A616A019BE3
:102BB00002EB4102928FB3FBF2F3D4E9000103EB85
:102BC0005103B3FBF1F39BB2C360284607B0BDE8E5
:102BD000F08FFFF71BFD0025174A636A616802EB5F
:102BE00043022468938FB0FBF3F303EB51032846B1
:102BF000B3FBF1F39BB2E36007B0BDE8F08FFFF7E2
:102C0000EFFC0D4AE9E700BFF369FFCF000C005865
:102C1000FFF4FF1100100140004400400048004054
:102C2000004C00400050004000140140007800407B
:102C3000007C0040004402586853000800093D0031
:102C40000090D003B44DB1F5004F2A4492F82C50B7
:102C50007FF42CAF202D66D8202D3FF60BAF01A2BC
:102C600052F825F0292E0008F92D0008752A0008D1
:102C7000752A0008E92D0008752A0008752A000841
:102C8000752A0008C32D0008752A0008752A000857
:102C9000752A0008752A0008752A0008752A000898
:102CA000752A0008B52D0008752A0008752A000845
:102CB000752A0008752A0008752A0008752A000878
:102CC000752A0008752A0008752A0008752A000868
:102CD000752A0008752A0008752A0008752A000858
:102CE000752A0008892D00088C4A526D02F00702EF
:102CF000052A3FF6B7AE8A4DAD5CD3E6402D7FF492
:102D0000B4AE03A80025FFF759FD834A616A049B0E
:102D10004EE7824A526D02F00702052A3FF6A2AE44
:102D2000804DAD5CBEE6402D7FF4A4AE03A8002527
:102D3000FFF744FD7848636A049A00EB4300808FF4
:102D4000D4E90036B2FBF0F2710801EB4201B1FBAD
:102D5000F6F1C1F3420221F00F010A4392B28BE671
:102D60006E4A526D02F00702052A3FF67BAE6E4DA9
:102D7000AD5C97E6694A526D02F03802282A3FF6A8
:102D800071AE6A4DAD5C8DE6634E4FF400426468EF
:102D9000002506EB40006108808FB2FBF0F201EBEA
:102DA0004201B1FBF4F1C1F3420221F00F010A43E9
:102DB00092B261E6584A0025646802EB40005C4A22
:102DC000E9E7564A156815F0200500F02D811668D0
:102DD00000255149C6F3C106564A01EB400064681C
:102DE000F240808F6108D8E768460025FFF73AFC7B
:102DF0004948636A019AA0E7474E0025FFF706FCA1
:102E0000636A616806EB430623684A08B48FB0FB27
:102E1000F4F002EB4002B2FBF1F1C1F3420221F007
:102E20000F010A4392B227E63B4EFFF7D9FBE7E7D3
:102E30004FF40040676807EB470383423FF615AE47
:102E4000B0EB073F3FF611AE202D00F2D780012DE9
:102E500014D9AB1E1E2B11D8DFE803F08E107010B2
:102E600010104C1010101010101032101010101004
:102E70001010101010101010101098000125A0F55F
:102E800040722D4B9A423FF6F0AD2368D860EDE5D5
:102E90002748CFE7214B1A68920640F1C3801B6890
:102EA0002448C3F3C103D840C4E76846FFF7DAFB00
:102EB00001980028BED10546D8E5FFF7BDFBF8E72D
:102EC000636A00211A48002506EB43039A8F00230A
:102ED000FDF756FA3A464FEA01292B467F084FEA9A
:102EE000002849EA106918EB070049F10001FDF7D5
:102EF00047FAC4E7094A136813F0200800F09A80E3
:102F000012680021636AC2F3C1020A4806EB430358
:102F10000D46D040DAE700BF68530008004402586D
:102F20009453000894530008945300086853000811
:102F300000093D000090D003FFFC0F00684600250B
:102F4000FFF790FB636A0198294606EB4303D4F828
:102F500004809A8F0023FDF713FA42460F022B4696
:102F60004FEA5808060247EA106716EB080047F1D7
:102F70000001FDF705FA82E7FFF75EFB636A0021B7
:102F8000D4F8048006EB43030D46E2E7636A4FF48E
:102F9000004578083A4606EB43064FF48077002157
:102FA0000023B68FB5FBF6F5E5FB07011D46FDF7DF
:102FB000E7F964E72C49646801EB40002B4AC6E559
:102FC0002B4A526D02F00702052A3FF64BAD294D00
:102FD000AD5C67E59968284A0A4032439A60DA6A2C
:102FE000616A22F00F020A43DA6201E5402D7FF4A4
:102FF0003CAD03A8FFF7E2FB04985AE7402D7FF4AD
:103000003DAF03A80025FFF7D9FB636A04989BE74F
:10301000174A526D02F00702052A3FF623AD174DFD
:10302000AD5C3FE5114805E70F4A646802EB4000DC
:103030000E4AB0E6636A00210C48454606EB43039E
:103040009A8F0023FDF79CF93A464FEA012B43463D
:103050007F084FEA002A4BEA106B1AEB07004BF18E
:103060000001FDF78DF90AE7685300080090D003CE
:103070000044025894530008FFF4FF1194530008D1
:10308000436BDA0710B406D50168846B4A6822F4F2
:10309000003222434A609C0706D50168C46B4A6827
:1030A00022F4803222434A60590706D50168046C35
:1030B0004A6822F4802222434A601A0706D5016832
:1030C000446C4A6822F4004222434A60DC0606D57A
:1030D0000168846C8A6822F4805222438A609906CF
:1030E00006D50168C46C8A6822F4005222438A60C3
:1030F0005A060AD50168046D4A68B4F5801F22F4A7
:10310000801242EA04024A600BD01B0606D5026810
:10311000816D536823F400230B4353605DF8044B27
:1031200070474A68446D22F4C00222434A60ECE7CB
:103130002DE9F843089F80460E4615469946D8F873
:10314000002001E07B1C0AD1D46936EA04030CBFDD
:1031500001240024AC42F5D00020BDE8F8833FB143
:10316000FEF77AFCA0EB0900B842E8D9D8F80020B5
:10317000136820210024032023F4D0731360936884
:1031800023F00103936088F8791088F8784088F874
:103190007A10E2E72DE9F0411F4690F8793082B0CD
:1031A000202B5ED10E46002957D0B2FA82F3154685
:1031B0005B09002A51D090F878200446012A50D0AB
:1031C0000122C367212380F8782080F87930FEF748
:1031D00043FCA4F86250B4F862208046A4F8605022
:1031E00092B24AB929E013F8011B22681E461185E4
:1031F000B4F8622092B202B3B4F86250434600972A
:103200000022013D80212046ADB2A4F86250FFF7B4
:103210008FFF334648BBA268B2F5805FE3D12269D5
:10322000002AE0D136F8023B2268C3F30803138575
:10323000B4F8622092B2002ADED143460022402137
:1032400020460097FFF774FF78B9202384F87800B0
:1032500084F8793002B0BDE8F081012002B0BDE809
:10326000F081022002B0BDE8F081032002B0BDE889
:10327000F08100BF70B50026044682B0C667FEF735
:10328000EBFB236805461A6812070DD41B685B0721
:1032900019D400232022184684F8792084F8783045
:1032A00084F87A2002B070BD6FF07E4032462B4623
:1032B0004FF4001100902046FFF73AFF78B92368D9
:1032C0001B685B07E5D56FF07E402B4600224FF46C
:1032D000800100902046FFF72BFF0028D9D0032063
:1032E00002B070BD90B310B590F87930044603F089
:1032F000FF0233B322682423204684F87930136810
:1033000023F001031360FFF71FFB012817D0636B45
:103310008BB9236820465A6822F490425A609A6812
:1033200022F02A029A601A6842F00102BDE81040B9
:103330001A60FFF79FBF2046FFF7A2FEE9E70120D2
:1033400010BD80F8782000F0F7FED3E70120704729
:1033500000B583B04FF6FF730122019001A9034825
:10336000FFF718FF019803B05DF804FBB0000020E0
:1033700070B59CB0202200210AA801F015F8202287
:10338000002101A801F010F8214B0021DA6818464D
:1033900022F00402DA6000919A6942F440429A6194
:1033A0009B6903F440430093009B83699B04FCD515
:1033B000202001260224002304220C21322513930D
:1033C00009941294169418941492179215951991C1
:1033D000CDE90C6009A8CDE91A33FEF7E3FC0346FA
:1033E00000B1FEE73F220326082503930192402304
:1033F0004FF48062214601A802960693CDE904535A
:10340000CDE90723FEF7F8FF00B1FEE71CB070BD61
:10341000004802582DE9F04FA7B0BFF34F8FBFF31C
:103420006F8FC54B0021C3F85012BFF34F8FBFF30E
:103430006F8F5A6942F400325A61BFF34F8FBFF366
:103440006F8FC3F88410BFF34F8FD3F8801043F60B
:10345000E074C1F34E32C1F3C901520102EA04051E
:10346000084645EA80760138C3F86062461CF8D108
:10347000203A12F1200FF1D1BFF34F8F5A6942F475
:1034800080325A61BFF34F8FBFF36F8FFEF7C8FAD8
:103490000024FFF76DFFA94B2594032524944FF6D4
:1034A000FF76D3F8E02021A9A54842F01002C3F826
:1034B000E020D3F8E02002F010021492149AD3F81E
:1034C000E02042F00402C3F8E020D3F8E02002F04C
:1034D00004021592159AD3F8E02042F02002C3F8B6
:1034E000E020D3F8E02002F020021692169AD3F8DA
:1034F000E02042F08002C3F8E020D3F8E02002F0A0
:1035000080021792179AD3F8E02042F00102C3F824
:10351000E020D3F8E02002F001021892189AD3F8C4
:10352000E02042F00202C3F8E020D3F8E02002F0ED
:1035300002021992199AD3F8E02042F04002C3F82F
:10354000E020D3F8E02002F040021A921A9AD3F851
:10355000E02042F00802C3F8E020D3F8E0302394E2
:1035600003F008031B931B9BCDE92165FEF7F2FADC
:1035700021A974482394CDE92165FEF7EBFA21A92E
:1035800071482394CDE92165FEF7E4FA21A96F483B
:103590002394CDE92155FEF7DDFA49F6FF7321A901
:1035A0006B482193CDE92254FEF7D4FA21A969484A
:1035B0002394CDE92165FEF7CDFA21A9664823942D
:1035C000CDE92165FEF7C6FA21A964482394CDE927
:1035D0002165FEF7BFFA62484FF4E13261490C23DE
:1035E0000461C0E90244C0E90644C0E90844C0E9F6
:1035F0000A44C0E90C44C0E900124361FFF772FEBF
:10360000002840F05585584BDFF89881A3F5C83362
:10361000DFF894A1DFF89491A8EB0308DFF890B1EC
:1036200013901293DAF800100024DAF808200B68DF
:10363000DAF8040043F080730B600460136843F011
:1036400001031360DAF804301C607F206323012536
:103650004FF0070C454E5027434A45490D9204222E
:103660000C91A0210994079402940E970895109448
:10367000CDE9003002230320CDE90A530823CDE928
:10368000036C3C4ECDE905303B4B3C480F96FCF7B4
:10369000F3FFDAF804301B68C9F80030384E4FF0F9
:1036A0004A0C12990822374803230396314E0D9194
:1036B00039460C9006930795334BCDF800C02A4845
:1036C0000E9710940F96CDE90A55CDE90855CDE92E
:1036D0000442CDE90144FDF781FBDAF804301B68B0
:1036E000C9F80430294EB22329480822039610262F
:1036F000009305230D90394626480E970C902648D6
:103700001094CDE904361B4E244B0F96CDE90A45A3
:10371000CDE90844CDE90654CDE90144FCF7ACFFFE
:10372000DAF804301B68C9F808301D4A42231299A0
:103730000C9202220D913DE000ED00E000440258A1
:10374000001002580008025800140258001C0258C9
:10375000000002580004025800180258000C0258D9
:10376000B000002000480040009001240000474BBA
:10377000DC54000830010020BC53000854C9000884
:1037800000002B6344550008FC5400080000115A47
:1037900000C80024E4550008000000246455000817
:1037A000B4560008E9ABFDFF0800002030250020DA
:1037B000FF57022439460B92032710220093B94881
:1037C0002823069703900E93B748B84B10940F9692
:1037D000CDE90945CDE90745CDE90452CDE90144DC
:1037E000FDF7FCFADAF804301B68C9F80C306823DE
:1037F000AF48DFF828C320270D9028220093042328
:10380000AC4828210E9210220C900493CDF80CC0E5
:10381000A94B0597A948CDE90A45CDE90844CDE96A
:103820000654CDE90144CDE90F64FCF725FFDAF831
:1038300004301B68C9F810304FF0030E1299DFF8FE
:10384000E0C27C2328229E489E4E0E923A460D915D
:1038500028210C90009307959B4BCDF80CC0944801
:1038600010940F96CDE9057E4FF0020ECDE90A5572
:10387000CDE90855CDF810E0CDE90144FDF7AEFAE9
:10388000DAF804301B68C9F8143089484FF0040E88
:10389000DFF890C260230D9028228C482821894EA1
:1038A0000E923A460C9000930597894BCDF810E0A4
:1038B000CDF80CC0814810940F96CDE90A45CDE9AA
:1038C0000844CDE90654CDE90144FCF7D5FEDAF809
:1038D00004301B68C9F8183081237E4A4FF0030E6C
:1038E0001299DFF844C20C92022200931423754E01
:1038F0000D9128210B923A460E930A95764B079428
:10390000CDF80CC06A4810940F96CDE9057E4FF0B3
:10391000050ECDE90854CDF810E0CDE90144FDF7DE
:103920005DFADAF804301B68C9F81C306B4B1422BE
:103930004FF0040C6A48039340230E921421059320
:103940008423684A0C900D923A4600933746664BA2
:103950000B950695CDF810C0584810940F96CDE9F8
:103960000944CDE90744CDE90144FCF785FEDAF8C6
:1039700004301B68C9F820305C4E142040225C4B98
:1039800001460E90129803930D905A4B059255489C
:1039900010940F97CDE90B5603260696042604963D
:1039A0008426CDE9095500963E46CDE90755CDE977
:1039B0000144FDF713FADAF804301B68C9F8243023
:1039C000484F14224C4B14210D974C4F0E9240221D
:1039D0000C97042703936F23059200930497484B99
:1039E0003648CDE90A45CDE90844CDE90654CDE98C
:1039F0000144CDE90F64FCF73FFEDAF804301B68A0
:103A0000C9F828303F4A03233F4E4FF0950C0C92E3
:103A1000022212990A270B9240220693052303964D
:103A2000284E0D91142104930A95384B0794059262
:103A3000CDF800C02B480E9710940F96CDE908548E
:103A4000CDE90144FDF7CAF9DAF804301B68C9F87A
:103A50002C308E23DFF8D4C04FF0050E2C4A009393
:103A600080232C483946174E0D9240220C90059326
:103A70000E97294B0B950695CDF810E0CDF80CC0AC
:103A80000E4810940F96CDE90944CDE90744CDE9DD
:103A90000144FCF7F1FDDAF804301B68C9F8303056
:103AA00046E000BF0000AA4C00C8002424560008CD
:103AB00000900124F4580008F45600080000002487
:103AC000945A00083001002074590008145F00085F
:103AD000145B0008B4600008945F00080000BE4C4E
:103AE0003469000800F4012434610008746C000893
:103AF0000000147F346A00080000CC4C746D00088C
:103B000054210908B47000080000CD4B746E000801
:103B100000260224B47100085401090800008B66D5
:103B20000000F4640000BA600000F66D00008971C6
:103B30004FF0030E1299DFF858C380229723BC4838
:103B4000BC4E0D9139460C9000930795BA4BCDF8B9
:103B500018E00592CDF810E0CDF80CC0B7480E97EC
:103B600010940F96CDE90A55CDE90855CDE90144E9
:103B7000FDF734F9DAF804301B68C9F83430B04B7B
:103B80008022AE484FF0050C039387230D903946F1
:103B9000AC48A84E0C9000930E97AB4B0592CDF815
:103BA00010C0AA4810940F96CDE90A45CDE9084403
:103BB000CDE90654CDE90144FCF75EFDDAF80430A6
:103BC0001B68C9F838304FF0030E1299DFF8C4C2F1
:103BD0008022A0239E48974E0D9139460C90009369
:103BE00007959C4BCDF818E00592CDF810E0CDF884
:103BF0000CC092480E9710940F96CDE90A55CDE966
:103C00000855CDE90144FDF7E9F8DAF804301B68FE
:103C1000C9F83C30904E8022DFF87CC24FF0050E90
:103C2000A82386480C963946824E0D9000930E9735
:103C30008A4B0592CDF810E0CDF80CC08348109463
:103C40000F96CDE90A45CDE90844CDE90654CDE902
:103C50000144FCF711FDDAF804301B68C9F8403064
:103C60004FF0030E7E4E12998022DFF830C26B2394
:103C7000CDF818E04FF0040E0C966E4E0D913946BB
:103C800000930795774B0592CDF810E0CDF80CC066
:103C90006A480E9710940F96CDE90A55CDE908555C
:103CA000CDE90144FDF79AF8DAF804301B68C9F849
:103CB00044306D4E8022DFF8E8C14FF0050E7023CE
:103CC0005E480C9639465B4E0D9000930E97674BFD
:103CD0000592CDF810E0CDF80CC05C4810940F961A
:103CE000CDE90A45CDE90844CDE90654CDE90144C2
:103CF000FCF7C2FCDAF804301B68C9F848304FF012
:103D0000030E5B4B12998022CDF818E04FF0040EA1
:103D100003F59066DFF88CC1CDF810E04FF0870E08
:103D20000C96444E0D91394607950592CDF800E06A
:103D3000CDF80CC041480E9710940F96CDE90A5566
:103D4000CDE90855CDE90144FDF748F8DAF804302B
:103D50001B68C9F84C304FF0050C464E8022464B8C
:103D6000CDF810C04FF06F0C3448394603930D90D6
:103D7000424B0E9706950592CDF800C0334810943B
:103D8000CDE90B562B4ECDE90944CDE90744CDE9E9
:103D900001440F96FCF770FCDAF804301B68C9F890
:103DA00050304FF0030E364E12998022DFF8F8C0E3
:103DB000B423CDF818E04FF0040E0C961D4E0D9173
:103DC0003946009307952F4B0592CDF810E0CDF8BA
:103DD0000CC01A480E9710940F96CDE90A55CDE9FC
:103DE0000855CDE90144FCF7F9FFDAF804301B6807
:103DF000C9F8543011484FF0060EDFF8B0C08022E9
:103E00000D907B232048394600930C901F4B0E9752
:103E10000B95069505920D48CDE90944CDE9074477
:103E2000CDE90144CDE903CECDE90F6440E000BF08
:103E30003478000830010020B47300080026022402
:103E400000006947347A000854C1080800000024C3
:103E5000B4800008347C0008B4820008548108084B
:103E600034890008B4840008348B000854410808E1
:103E7000348D0008B493000800005B6B54010808FF
:103E8000349A0008B4950008349C000854C107080F
:103E90000000C9660000FB4800004568000035517D
:103EA00000002C580000EB4A0000C4620000637957
:103EB000FCF7E2FBDAF804301B68C9F858303946E1
:103EC0007C4F052212980C9702270E9280227A4B83
:103ED0000D9003930794794B05927948CDE90A57E1
:103EE00003270697042704974027CDE90854CDE916
:103EF00001440097CDE90F64FCF770FFDAF8043055
:103F00001B68C9F85C300522DFF804C2052156237E
:103F10000E924FF480776B4A6B486C4E0D92802264
:103F20000C9000930B956A4B06950491CDF80CC04C
:103F30000597684810940F96CDE90944CDE90744E8
:103F4000CDE90144FCF798FBDAF804301B68C9F8A6
:103F5000603005231299604E4FF0B00C0E933A4634
:103F60000D9119465D4803230396584E0C90049317
:103F70000795CDF800C0534810940F96CDE905730E
:103F8000CDE90A55564BCDE90855CDE90144FCF77A
:103F900025FFDAF804301B68C9F864300523494866
:103FA000504E4FF0990C19460E930D9003234E4836
:103FB0003A460396454E0C90049305974B4BCDF82B
:103FC00000C0444810940F96CDE90A45CDE9084455
:103FD000CDE90654CDE90144FCF74EFBDAF8043094
:103FE0001B68C9F86830052312993A463548049190
:103FF00019460396029501930094FDF7FBFBDAF84E
:1040000004301B68C9F86C30304B0D25384E5421F4
:1040100007933A46374B2F480693374B05930823AF
:104020008DE8720004934FF47A733449FDF7F2F986
:10403000DAF804301B68C9F870301CAF21AD3E4679
:10404000AC462F4B002108EB030013F8012F8A42E6
:1040500003DD11463060CCF800209B45F3D156F8C3
:10406000043B0CF1040C234AD45421AB9E42E8D10A
:10407000DAF804301B68C9F87430139921480E46E9
:1040800000F09AF920480136204C00F01BFA57F84E
:10409000041B204655F8042B00F08EF921AB9F42FB
:1040A000F5D14FF4FA601396FDF7DCFCFFF7BABACE
:1040B000FEE700BFB4A200080000FF7F349E0008A6
:1040C00000260224003F0224B4A40008300100208E
:1040D000544107080000002400001A40B4B1000851
:1040E000B4A8000800004241B4B5000854410608D5
:1040F0000000344618540224B4B900085459020888
:1041000017540224643109087C31090894310908E4
:104110000000045E074B82B0D3F8F42042F00202A4
:10412000C3F8F420D3F8F43003F002030193019BA9
:1041300002B0704700440258254B026870B59A429D
:1041400088B04FF00004CDE90344CDE9054407945D
:1041500001D008B070BD1F4B02264FF40060072548
:10416000D3F8E82003A942F48022C3F8E820D3F86A
:10417000E82002F480220092009AD3F8E020324333
:10418000C3F8E020D3F8E02032400192019AD3F83E
:10419000E02042F00802C3F8E020D3F8E0300390BA
:1041A00003F008030C4805940293029B06940496BE
:1041B0000795FDF7CFFC4FF4807303A907480496D9
:1041C00007950393CDE90544FDF7C4FC08B070BD25
:1041D000004800400044025800040258000C0258F5
:1041E000704700BF704700BFFDF72ABC70B5161EB0
:1041F00007DD0C468D19AFF3008004F8010BA542D2
:10420000F9D1304670BD00BF70B5161E07DD0C46F3
:104210008D1914F8010BFFF79BF8A542F9D1304630
:1042200070BD00BF0D490A6808B5034632B113449A
:104230006846834209D810460B6008BD084802460C
:104240000860684613448342F5D900F075F80C23E2
:104250004FF0FF320360104608BD00BFA0000020F1
:10426000B82500204FF0FF30704700BF4FF40053D7
:1042700000204B60704700BF01207047002070474E
:1042800014490022144B154870B4D1F88840012617
:10429000134D44F47004C1F888401C6834431C601A
:1042A0001A611C6820404FF0006418609A61DA615E
:1042B0001A629A62DA621A635A639A63DA631A6458
:1042C0005A64186820F4802018601A662E608C608A
:1042D00070BC704700ED00E0004402587FEDF6EA44
:1042E00008810051DFF834D0002103E00C4B5B580B
:1042F000435004310B480C4B42189A42F6D30B4AF8
:1043000002E0002342F8043B094B9A42F9D3FFF73D
:10431000B7FF00F017F8FFF77DF8704700000220A4
:104320004C3209080000002080000020800000209E
:10433000B8250020FEE70000014B1868704700BF59
:104340001C00002070B50D4D0D4C641BA410002600
:10435000A64209D10B4D0C4C00F0FAFF641BA410CF
:104360000026A64205D170BD55F8043B984701369A
:10437000EEE755F8043B98470136F2E74432090866
:104380004432090844320908483209080A44914273
:1043900000F1FF3300D1704710B511F8014B03F85D
:1043A000014F9142F9D110BD02440346934200D11E
:1043B000704703F8011BF9E70FB40A4B13B51C68EB
:1043C00024B1A36913B9204600F05EFA05AB049A44
:1043D000A1680193204600F02FFC02B0BDE8104018
:1043E00004B070471C00002070B50E46054618B199
:1043F00083690BB900F048FAAB69AC6813B9284679
:1044000000F042FA2C4B9C4220D16C68636EDB07B3
:1044100005D4A389980502D4A06D00F0D3FAA3892E
:1044200019071DD52369DBB1013EA36816F8011FEA
:10443000013BA36039BB002B38DA22460A2128460B
:1044400000F048F8013011D00A2511E01B4B9C42C6
:1044500001D1AC68DAE71A4B9C4208BFEC68D5E79B
:104460002146284600F088F80028DDD04FF0FF35BF
:10447000636EDA0705D4A3899B0502D4A06D00F012
:10448000A2FA284670BD002B04DAA2699A4206DC23
:104490000A2904D023685A1C22601970C5E72246F5
:1044A000284600F017F80130BFD1DFE723680A255E
:1044B0005A1C22601D70DBE7C8310908E831090881
:1044C000A8310908024B01461868FFF78DBF00BFED
:1044D0001C000020F8B50E461446054618B1836945
:1044E0000BB900F0D1F9214B9C422BD16C68A36928
:1044F000A360A3891A072FD523696BB323692068AA
:10450000C01A6369F6B28342374604DC2146284666
:1045100000F026F930BBA368013BA36023685A1C56
:1045200022601E7063690130834204D0A389DB07D7
:1045300006D50A2E04D12146284600F011F988B983
:104540003846F8BD0A4B9C4201D1AC68CFE7094B15
:104550009C4208BFEC68CAE72146284600F00CF8E8
:104560000028CBD04FF0FF37EAE700BFC831090879
:10457000E8310908A8310908324B70B51D680646B4
:104580000C4625B1AB6913B9284600F07DF92E4BD6
:104590009C420FD16C68A389B4F90C2019072CD464
:1045A000DD0611D40923336042F04003A3814FF0AC
:1045B000FF303EE0254B9C4201D1AC68EBE7244B39
:1045C0009C4208BFEC68E6E7580712D5616B41B121
:1045D00004F14403994202D0304600F059FA002316
:1045E0006363A38923F02403A38100236360236909
:1045F0002360A38943F00803A38123694BB9A389EE
:1046000003F42073B3F5007F03D02146304600F059
:10461000FFF9A089B4F90C2010F001030AD000239F
:10462000A36063695B42A361236943B910F0800012
:10463000BAD170BD810758BF6369A360F4E7002059
:10464000F7E700BF1C000020C8310908E83109085D
:10465000A83109088A892DE9F041054610070C4662
:1046600058D44B68002B05DC0B6C002B02DC0020BF
:10467000BDE8F081E66A002EF9D0002312F48052E2
:104680002F682B6032D0606DA3895A0705D5636807
:10469000C01A636B0BB1236CC01A00230246E66A92
:1046A000216A2846B047431CA38906D129681D29E1
:1046B0002CD82A4ACA40D60728D500226260D904DD
:1046C0002269226004D5421C01D12B6803B96065C0
:1046D000616B2F600029CAD004F14403994202D0D3
:1046E000284600F0D5F900206063C1E7216A012364
:1046F0002846B047411CC7D12B68002BC4D01D2BC6
:1047000001D0162B01D12F60B1E7A38943F04003FC
:10471000A381ADE70F69002FA9D093070E6808BFEA
:104720004B690F6018BF0023A6EB07088B60B8F138
:10473000000F9CDD216AA66A43463A462846B047E8
:10474000002806DCA38943F04003A3814FF0FF302B
:104750008EE70744A8EB0008E9E700BF010040200E
:1047600038B50B6905460C4613B90025284638BDF7
:1047700018B183690BB900F087F8144B9C421BD128
:104780006C68B4F90C30002BEFD0626ED00704D403
:10479000990502D4A06D00F015F928462146FFF7CF
:1047A00059FF636EDA070546E0D4A3899B05DDD483
:1047B000A06D00F008F9D9E7054B9C4201D1AC6827
:1047C000DFE7044B9C4208BFEC68DAE7C831090810
:1047D000E8310908A8310908002310B50446C0E9EA
:1047E0000033C0E90433836081814366C281836101
:1047F000194608225C30FFF7D7FD054B6362054B75
:10480000A362054BE362054B2462236310BD00BF26
:10481000E1510008035200083B5200085F520008B3
:10482000014900F0AFB800BF6147000870B54A1EEB
:10483000682555430E4605F1740100F079F90446E8
:1048400040B10021C0E900160C30A06005F16802FB
:10485000FFF7AAFD204670BD014800F0B3B800BFC5
:10486000B0250020014800F0AEB800BFB025002000
:10487000014800F0A7B800BFAB250020014800F0B8
:10488000A2B800BFAB25002010B50446FFF7F0FF2B
:10489000A3691BB1BDE81040FFF7F0BFC4E91233B4
:1048A0002365134B134A1B68A262A34204BF012372
:1048B000A361204600F020F86060204600F01CF85C
:1048C000A060204600F018F80022E0600421606833
:1048D000FFF782FFA06801220921FFF77DFFE06852
:1048E00002221221FFF778FF0123A361D2E700BF64
:1048F000A431090821480008F8B50746FFF7ACFFC6
:104900001E4B1E68B36913B93046FFF7BDFF48362A
:10491000D6E90134013B03D533680BB33668F7E7BA
:10492000B4F90C50D5B9164BE36004F15800656634
:1049300000F047F8FFF796FFC4E90155C4E90455B4
:104940002560A5610822294604F15C00FFF72CFDD3
:10495000C4E90D55C4E912552046F8BD6834D9E7BD
:1049600004213846FFF762FF044630600028D5D1A5
:10497000FFF778FF0C233B60EEE700BFA431090886
:104980000100FFFF2DE9F8430646884600F1480480
:104990000027D4E90195B9F1010905D52468002C57
:1049A000F7D13846BDE8F883AB89012B07D9B5F9B3
:1049B0000E30013303D029463046C04707436835DF
:1049C000E9E770477047704770B50E46B1F90E10B1
:1049D000002996B014461D4607DA00232B60B389E0
:1049E0001A0610D44FF480630EE06A4600F05EFCB5
:1049F0000028F2DB019A02F47042A2F500535A42F9
:104A00005A412A60EEE740230020236016B070BDB3
:104A10008B8973B59D0706460C4607D504F14703FD
:104A2000236023610123636102B070BD01AB6A465C
:104A3000FFF7CAFF00990546304600F079F848B9FB
:104A4000B4F90C309A05EFD423F0030343F00203CA
:104A5000A381E3E70D4BB362A389206043F0800399
:104A6000A381009B6361019B20615BB1B4F90E10CF
:104A7000304600F02DFC28B1A38923F0030343F056
:104A80000103A381A0890543A581CDE72148000842
:104A900037B5002948D051F8043C0190002BA1F112
:104AA0000404B8BFE41800F035FC204A01981368EC
:104AB000154633B96360146003B0BDE8304000F0C0
:104AC0002FBCA3420BD921686218934204BF1A6815
:104AD0005B68636004BF521822602C60ECE71A46E2
:104AE0005B680BB1A342FAD911685518A5420BD1E6
:104AF000246821445418A3421160DDD11C685B680E
:104B0000536021441160D7E702D90C230360D3E737
:104B1000256861198B4204BF19685B68636004BF34
:104B2000491921605460C7E703B030BDA8000020D8
:104B3000F8B5CD1C25F0030508350C2D38BF0C2524
:104B4000002D064601DBA94203D90C233360002067
:104B5000F8BD00F0DFFB21490A6814469CB9204FDC
:104B60003B6823B92146304600F02AFB38602946CD
:104B7000304600F025FB431C23D10C233360304624
:104B800000F0CEFBE3E723685B1B17D40B2B03D9A4
:104B900023601C44256004E06368A2420CBF0B60E4
:104BA0005360304600F0BCFB04F10B00231D20F0E5
:104BB0000700C21ACCD01B1AA350C9E7224664686A
:104BC000CCE7C41C24F00304A042E3D0211A3046F1
:104BD00000F0F6FA0130DDD1CFE700BFA8000020D9
:104BE000AC0000209368013B002B10B4936008DAFE
:104BF0009469A34201DB0A2903D15DF8044BFFF756
:104C000069BC1368581C1060197008465DF8044BA5
:104C10007047F8B506460F461446D518AC4201D188
:104C2000002007E014F8011B3A463046FFF7DAFF90
:104C3000431CF3D1F8BD00002DE9F04F0D469DB0A7
:104C400014469846064618B183690BB9FFF71CFE57
:104C5000894B9D421BD175686B6ED90705D4AB8912
:104C60009A0502D4A86DFFF7ADFEAB891B0701D5ED
:104C70002B69EBB929463046FFF77EFCC0B16B6E5D
:104C8000DC070ED54FF0FF301DB0BDE8F08F7B4B39
:104C90009D4201D1B568DFE7794B9D4208BFF568B9
:104CA000DAE7AB899805EDD4A86DFFF78CFEE9E74C
:104CB0000023099320238DF82930CDF80C80302370
:104CC000DFF8C0818DF82A304FF0010923469A465B
:104CD00013F8012B0AB1252AF9D1BAEB040B0BD03A
:104CE0005B46224629463046FFF793FF013000F02D
:104CF000AA80099A5A4409929AF80030002B00F0D1
:104D0000A28000234FF0FF32CDE905230AF1010A0A
:104D1000049307938DF853301A935446052214F8E0
:104D2000011B5848FBF7DCFA049AD8B9D10644BFF6
:104D300020238DF85330130744BF2B238DF85330B5
:104D40009AF800302A2B15D0079A544600204FF0CD
:104D50000A0C214611F8013B303B092B4ED9B0B16A
:104D6000079214E0A0EB080309FA03F3134304933A
:104D7000A246D2E7039B191D1B680391002BBBBF02
:104D80005B4242F0020207930793B8BF0492237874
:104D90002E2B0CD163782A2B35D1039B1A1D1B684F
:104DA0000392002BB8BF4FF0FF3302340593DFF8B6
:104DB000E4A0217803225046FBF792FA40B1402349
:104DC000A0EB0A0003FA00F0049B034301340493B0
:104DD00014F8011B2C488DF828100622FBF780FAE6
:104DE00000283FD0294B1BBB039B073323F007034D
:104DF00008330393099B3B44099367E70CFB02329A
:104E00000C460120A5E700230134059319464FF015
:104E10000A0C204610F8012B303A092A03D9002B3E
:104E2000C5D00591C3E70CFB012104460123F0E73F
:104E300003AB00932A46164B04A93046AFF300801B
:104E40000746781CD6D16B6ED90705D4AB899A0575
:104E500002D4A86DFFF7B7FDAB895B063FF512AF33
:104E6000099811E703AB00932A46094B04A9304681
:104E700000F080F8E4E700BFC8310908E83109080C
:104E8000A831090808320908123209080000000098
:104E9000134C00080E3209082DE9F04716469946D2
:104EA0008A680B69DDF820809342B8BF13463360EF
:104EB00091F8432007460C460AB10133336023685A
:104EC000990642BF336802333360256815F0060542
:104ED00006D104F1190AE36832689B1AAB4226DC5A
:104EE00094F84320131E226818BF012392062BD486
:104EF00004F1430249463846C04701301ED02368BA
:104F0000E568326803F00603042B08BFAD1AA368F6
:104F100022690CBF25EAE57500259342C4BF9B1AA0
:104F2000ED1800261A34B5421AD1002008E00123FA
:104F3000524649463846C047013003D14FF0FF3052
:104F4000BDE8F0870135C6E7E1185A1C302081F82A
:104F50004300224494F8451082F843100233C7E717
:104F60000123224649463846C0470130E6D0013683
:104F7000D9E700002DE9FF470C469146277E0C99A2
:104F8000782F80469A4604F1430207D8622F0AD848
:104F9000002F00F0D880582F00F0A38004F14206C3
:104FA00084F842703AE0A7F16303152BF6D801A00C
:104FB00050F823F00D500008215000089D4F0008C4
:104FC0009D4F00089D4F00089D4F0008215000088C
:104FD0009D4F00089D4F00089D4F00089D4F000801
:104FE0002D510008515000080F5100089D4F000836
:104FF0009D4F00084F5100089D4F00085150000878
:105000009D4F00089D4F0008175100080B681A1D9E
:105010001B680A6004F1420684F842300123A3E0D1
:10502000256808682E0600F104030AD505680B60A0
:10503000002D03DA2D236D4284F843305E480A23A5
:1050400019E015F0400F05680B6018BF2DB2EFE7AF
:105050000B682568181D0860280601D51D6802E048
:105060006906FBD51D8854486F2F0CBF08230A23FF
:10507000002184F843106668A660002EA2BF216854
:1050800021F0040121600DB9002E4DD01646B5FB6C
:10509000F3F103FB1157C75D06F8017D2F46BB42B4
:1050A0000D46F4D9082B0BD12368DF0708D52369F7
:1050B00061689942DEBF302306F8013C06F1FF36F5
:1050C000921B2261CDF800A04B4603AA2146404620
:1050D000FFF7E2FE01304CD14FF0FF3004B0BDE8E5
:1050E000F087354884F8457023680E681F0656F827
:1050F000045B0E6014D5D90744BF43F0200323603E
:105100001DB9236823F0200323601023B0E7236830
:1051100043F0200323607823284884F84530E3E7F0
:105120005E0648BFADB2E6E71646BBE70B682668E9
:1051300060691D1D0D6035061B6801D5186002E011
:105140007106FBD51880002323611646BAE70B6869
:105150001A1D0A601E68626800213046FBF7C0F81D
:1051600008B1801B606063682361002384F84330CA
:10517000A8E72369324649464046D0470130ABD0C4
:1051800023689B0713D4E068039B9842B8BF184676
:10519000A4E70123324649464046D04701309BD020
:1051A0000135E36803995B1AAB42F2DCEBE70025BB
:1051B00004F11906F5E700BF193209082A32090877
:1051C00038B5064D0023044608462B60FFF72AF841
:1051D000431C02D12B6803B1236038BDB4250020E5
:1051E00010B50C46B1F90E1000F0A0F80028ABBFC6
:1051F000636DA3891B1823F48053ACBF6365A3813F
:1052000010BD2DE9F0411F468B89DB0505460C4694
:10521000164605D5B1F90E100223002200F068F8F9
:10522000A389B4F90E1023F48053A38132463B4680
:105230002846BDE8F04100F017B810B50C46B1F9AA
:105240000E1000F055F8431CA38915BF606523F4C8
:10525000805343F48053A38118BFA38110BDB1F9DB
:105260000E1000F013B8000038B5074D044608468C
:10527000114600222A601A46FEF7C6FF431C02D1DF
:105280002B6803B1236038BDB425002038B5064D26
:105290000023044608462B60FEF7E4FF431C02D1BE
:1052A0002B6803B1236038BDB425002038B5074D05
:1052B00000230446084611462B60FEF7D7FF431C27
:1052C00002D12B6803B1236038BD00BFB425002094
:1052D00038B5064D0023044608462B60FEF7CCFF88
:1052E000431C02D12B6803B1236038BDB4250020D4
:1052F00038B5074D04460846114600222A601A4672
:10530000FEF7BCFF431C02D12B6803B1236038BDFC
:10531000B42500200148FFF755BB00BFAC25002095
:105320000148FFF750BB00BFAC25002038B5074D42
:1053300004460846114600222A601A46FEF756FF28
:10534000431C02D12B6803B1236038BDB425002073
:10535000F8B500BFF8BC08BC9E467047F8B500BF62
:08536000F8BC08BC9E46704732
:105368000180808080808080048080808080808030
:1053780040808080808080800880808080808080DD
:105388001080808080808080200000000004400819
:105398001020000002044008102000000100020054
:1053A8000400060008000A000C001000200040005D
:1053B800800000016D736A636C716A635E5D64638B
:1053C80077806B6374806B63615A6463717369631C
:1053D8006E716763605D6263636364636363646380
:1053E8006363646362636463636364636363646382
:1053F8006363646362636463626263637433816377
:105408007F16956377338263802883638D009E635C
:105418007F1D8E63694081637B258B63733C776353
:10542800636464636263646363646463646565633B
:105438006364656363646563646565636364656326
:10544800646565634A3656633E1E5963584D5A6310
:105458009AC37B63A0D57963849B74634330576395
:105468003E1E576351485B633C32596398B6786374
:105478004641626329004B63B9FE89633E18606345
:105488003D2F546395B27363473E626364656663F8
:1054980066656663646463636565666365656663BC
:1054A800656566636666676366666763676767639D
:1054B80096533F639F4E39636B4B73638D2E6E63B8
:1054C800A54E3663806A3E6388653D637F4A6063A4
:1054D80067487B635C9300008B08000009D30000D9
:1054E800EB7CFFFFC96800003DD200006E6DFFFF36
:1054F800AA8F00004A4E4A334B4A2C4B494D4A5812
:1055080048497D484A4B4A384B4A214B49494884C7
:105518004B46B149524949904350FE50484C4B5074
:105528004C4A2C494A4A4951484A2A4A49494A5701
:10553800534998494A4D4A214749004AC1FFFFFF4C
:10554800B3FFFFFFBA02000085FFFFFF5B01000009
:10555800190100003CFFFFFF01000000B2B2E4B2F5
:10556800B2B2B2B1AAB2AFB2B3B2B23FB2B2B2B291
:10557800B2B1B3B2B7B2BAB2B0B4B238B2B2B3B26F
:10558800B2B2B2E0ADB230B2B1B3B2A3BFB2C2B23E
:10559800C40FB2C058B2B0B2AFBEB2AFA3B2AAB2D3
:1055A800B2D4B2AC00B26FB2B1C6B270EEB2B7B29A
:1055B800B2ABB2B576B2AEB2B0B5B2B007B2D0B295
:1055C800AAC5B2FEB1B2B2B2B2B2B2B2E1B2B2B22E
:1055D800B3AFB2B0B3B2B3B218B2B2B2F5FEFFFF16
:1055E8005181000061EBFFFF0B3D00002B0800001C
:1055F8000A60000087540000CB5600005B340000AE
:10560800ED5D000018030000945000004FF4FFFF08
:1056180065E8FFFFB6090000354E000044405F45CD
:10562800774140454141494C41B54444574058436E
:10563800004840443E413E4F40904645464246421F
:105648005445413D48413F46412E43433D40E8448F
:1056580059413F3B3F42483742FE45454840944404
:1056680028453D4C2F413D3341FD44463D4288424B
:10567800424341425541413C415A43444642A64275
:105688002743403F44424243425142433D436942DB
:10569800703F3F43364241434261414342422642C2
:1056A8002E4141424A424344423B4242F4FAFFFF00
:1056B800CF060000C5FEFFFF10FFFFFF53000000EC
:1056C8007CFEFFFF110500000C030000A50500008B
:1056D8007D020000A0020000BF03000010030000CC
:1056E800DFFDFFFFAFFEFFFF00000000686B686B87
:1056F800686A6968696865646A688A686868686603
:105708006966466120646E6764686F646968686981
:105718006968656A6C636E8F6368716C66656865D5
:105728006865696768606F6660684F68666A686B15
:10573800676768586B68C6646468686B8D5B686D7A
:1057480068576968677769686068666868686866DE
:105758006967676A6966676566686686686A686BA6
:1057680068696767686F646B69688D686767686888
:105778006968585D776759656768656767676869C5
:1057880068686B726966622A65686E604B836856E2
:1057980068866968686668686C6869676F9568662E
:1057A8006A5D6667686B67675B6865686682687B61
:1057B80073655B65680057631B68B36FA176684FB4
:1057C80060476A6C6A8D6B6B49686A67686B686B5F
:1057D80068686A6A686A726D676887686467686714
:1057E80066616A58656676FE68686A416D5E6875C6
:1057F8006A6B676768676B68636863696665686929
:105808006A6756666360606964686A7B686A686A22
:105818006868666567696A696868896767596880DA
:1058280063BD6A69695D64677968656A6A69686998
:105838006B6C6651697231F382685C6D686B686B7A
:1058480068696869686B5F646A688D686A4F68939D
:105858006A5C6768685B68686E6866686950687DD6
:105868006564696768666A686C686F686B636866B0
:10587800806E696768676768686868686A68686E7C
:10588800686966466368706E6A68766A4DB068369D
:10589800616C666868716968556864676868686992
:1058A80065696A6B6968676C686867E0696A686DEA
:1058B800696D6664676670646C688D686569686739
:1058C800676766696767696A6C686769686968684D
:1058D8006C675E8271668D6966686B676864686705
:1058E800686564716863637060684768A900000050
:1058F800A1260000ACF8FFFF771A0000F1F9FFFFBE
:1059080040FFFFFF5C0B00002D000000C61D0000DB
:10591800571E00007A00000046050000782E00009F
:1059280087FDFFFFDFFBFFFF16BAFFFFDB14000058
:10593800F71E000013020000E7F7FFFFF2E4FFFF85
:10594800D404000061010000210A000034040000B2
:10595800F21400000F0A000025FCFFFFFEFEFFFF07
:10596800CA1A000091DEFFFF881F00007E7B7C9A28
:105978007B73802A7C7879777D7A627E8281897BC5
:1059880082CE7DA7536E7A787C847D8079867086F6
:105998007F8F88C99B7184877F79FE867975A681F8
:1059A800762C8445988F797278828A767B7B7B7A8D
:1059B8007D7078817B7B74757A7E007C78807D78B9
:1059C8007D78748B897D7E7E7F7B7C7B757D7C6E0C
:1059D8007E8D7C447C8089887E7A787A947F6D80FD
:1059E800772B8894A0877A7B78817C8B917C8770D1
:1059F800748A7CAC7B8488867F7A7776797F5A82B2
:105A080081C18457666E797A73807D75797C7C7ADA
:105A18007C767C837A7D77757B7D957B697F7B79C6
:105A28007C837A896D797D7D837A7C7A7A7C7C77B0
:105A38007C6F7B7A7C7D72757A7E7D7C807B7C79BD
:105A48007B7F7278817D7E7D7D777C7C797B7E789B
:105A58007C747C7C7A7D75757B7C797A797E777AA3
:105A68007C7C798B76797E7C81777A7B7D7C7B7E6A
:105A78007D7E7C7E7C7C7E807C7C7F7C787A7C7D55
:105A88007C7A7C717D7E7B7C7B777C7CCC02000081
:105A98009200000078010000300000005F0500005F
:105AA800EEFFFFFF94FDFFFF8804000024F1FFFFD5
:105AB800A8010000FFFFFFFF9A010000930000000B
:105AC80075020000CC050000D20000008400000030
